{"abi":[{"inputs":[{"internalType":"uint256","name":"minimum","type":"uint256"},{"internalType":"address","name":"creator","type":"address"}],"stateMutability":"nonpayable","type":"constructor"},{"inputs":[{"internalType":"uint256","name":"index","type":"uint256"}],"name":"approveRequest","outputs":[],"stateMutability":"nonpayable","type":"function"},{"inputs":[{"internalType":"address","name":"","type":"address"}],"name":"approvers","outputs":[{"internalType":"bool","name":"","type":"bool"}],"stateMutability":"view","type":"function"},{"inputs":[],"name":"approversCount","outputs":[{"internalType":"uint256","name":"","type":"uint256"}],"stateMutability":"view","type":"function"},{"inputs":[],"name":"contribute","outputs":[],"stateMutability":"payable","type":"function"},{"inputs":[{"internalType":"string","name":"_description","type":"string"},{"internalType":"uint256","name":"_value","type":"uint256"},{"internalType":"address","name":"_recipient","type":"address"}],"name":"createRequest","outputs":[],"stateMutability":"nonpayable","type":"function"},{"inputs":[{"internalType":"uint256","name":"index","type":"uint256"}],"name":"finalizeRequest","outputs":[],"stateMutability":"payable","type":"function"},{"inputs":[],"name":"getRequestsCount","outputs":[{"internalType":"uint256","name":"","type":"uint256"}],"stateMutability":"view","type":"function"},{"inputs":[],"name":"getSummary","outputs":[{"internalType":"uint256","name":"","type":"uint256"},{"internalType":"uint256","name":"","type":"uint256"},{"internalType":"uint256","name":"","type":"uint256"},{"internalType":"uint256","name":"","type":"uint256"},{"internalType":"address","name":"","type":"address"}],"stateMutability":"view","type":"function"},{"inputs":[],"name":"manager","outputs":[{"internalType":"address","name":"","type":"address"}],"stateMutability":"view","type":"function"},{"inputs":[],"name":"minimumContribution","outputs":[{"internalType":"uint256","name":"","type":"uint256"}],"stateMutability":"view","type":"function"},{"inputs":[],"name":"numRequests","outputs":[{"internalType":"uint256","name":"","type":"uint256"}],"stateMutability":"view","type":"function"},{"inputs":[{"internalType":"uint256","name":"","type":"uint256"}],"name":"requests","outputs":[{"internalType":"string","name":"description","type":"string"},{"internalType":"uint256","name":"value","type":"uint256"},{"internalType":"bool","name":"complete","type":"bool"},{"internalType":"address","name":"recipient","type":"address"},{"internalType":"uint256","name":"approvalCount","type":"uint256"}],"stateMutability":"view","type":"function"}],"devdoc":{"kind":"dev","methods":{},"version":1},"evm":{"assembly":"    /* \"Campaign.sol\":432:2576  contract Campaign {... */\n  mstore(0x40, 0x80)\n    /* \"Campaign.sol\":930:1036  constructor(uint minimum, address creator) {... */\n  callvalue\n  dup1\n  iszero\n  tag_1\n  jumpi\n  0x00\n  dup1\n  revert\ntag_1:\n  pop\n  mload(0x40)\n  sub(codesize, bytecodeSize)\n  dup1\n  bytecodeSize\n  dup4\n  codecopy\n  dup2\n  dup2\n  add\n  0x40\n  mstore\n  dup2\n  add\n  swap1\n  tag_2\n  swap2\n  swap1\n  tag_3\n  jump\t// in\ntag_2:\n    /* \"Campaign.sol\":989:996  creator */\n  dup1\n    /* \"Campaign.sol\":979:986  manager */\n  0x02\n  0x00\n    /* \"Campaign.sol\":979:996  manager = creator */\n  0x0100\n  exp\n  dup2\n  sload\n  dup2\n  0xffffffffffffffffffffffffffffffffffffffff\n  mul\n  not\n  and\n  swap1\n  dup4\n  0xffffffffffffffffffffffffffffffffffffffff\n  and\n  mul\n  or\n  swap1\n  sstore\n  pop\n    /* \"Campaign.sol\":1024:1031  minimum */\n  dup2\n    /* \"Campaign.sol\":1002:1021  minimumContribution */\n  0x03\n    /* \"Campaign.sol\":1002:1031  minimumContribution = minimum */\n  dup2\n  swap1\n  sstore\n  pop\n    /* \"Campaign.sol\":930:1036  constructor(uint minimum, address creator) {... */\n  pop\n  pop\n    /* \"Campaign.sol\":432:2576  contract Campaign {... */\n  jump(tag_6)\n    /* \"#utility.yul\":88:205   */\ntag_8:\n    /* \"#utility.yul\":197:198   */\n  0x00\n    /* \"#utility.yul\":194:195   */\n  dup1\n    /* \"#utility.yul\":187:199   */\n  revert\n    /* \"#utility.yul\":334:411   */\ntag_10:\n    /* \"#utility.yul\":371:378   */\n  0x00\n    /* \"#utility.yul\":400:405   */\n  dup2\n    /* \"#utility.yul\":389:405   */\n  swap1\n  pop\n    /* \"#utility.yul\":334:411   */\n  swap2\n  swap1\n  pop\n  jump\t// out\n    /* \"#utility.yul\":417:539   */\ntag_11:\n    /* \"#utility.yul\":490:514   */\n  tag_23\n    /* \"#utility.yul\":508:513   */\n  dup2\n    /* \"#utility.yul\":490:514   */\n  tag_10\n  jump\t// in\ntag_23:\n    /* \"#utility.yul\":483:488   */\n  dup2\n    /* \"#utility.yul\":480:515   */\n  eq\n    /* \"#utility.yul\":470:533   */\n  tag_24\n  jumpi\n    /* \"#utility.yul\":529:530   */\n  0x00\n    /* \"#utility.yul\":526:527   */\n  dup1\n    /* \"#utility.yul\":519:531   */\n  revert\n    /* \"#utility.yul\":470:533   */\ntag_24:\n    /* \"#utility.yul\":417:539   */\n  pop\n  jump\t// out\n    /* \"#utility.yul\":545:688   */\ntag_12:\n    /* \"#utility.yul\":602:607   */\n  0x00\n    /* \"#utility.yul\":633:639   */\n  dup2\n    /* \"#utility.yul\":627:640   */\n  mload\n    /* \"#utility.yul\":618:640   */\n  swap1\n  pop\n    /* \"#utility.yul\":649:682   */\n  tag_26\n    /* \"#utility.yul\":676:681   */\n  dup2\n    /* \"#utility.yul\":649:682   */\n  tag_11\n  jump\t// in\ntag_26:\n    /* \"#utility.yul\":545:688   */\n  swap3\n  swap2\n  pop\n  pop\n  jump\t// out\n    /* \"#utility.yul\":694:820   */\ntag_13:\n    /* \"#utility.yul\":731:738   */\n  0x00\n    /* \"#utility.yul\":771:813   */\n  0xffffffffffffffffffffffffffffffffffffffff\n    /* \"#utility.yul\":764:769   */\n  dup3\n    /* \"#utility.yul\":760:814   */\n  and\n    /* \"#utility.yul\":749:814   */\n  swap1\n  pop\n    /* \"#utility.yul\":694:820   */\n  swap2\n  swap1\n  pop\n  jump\t// out\n    /* \"#utility.yul\":826:922   */\ntag_14:\n    /* \"#utility.yul\":863:870   */\n  0x00\n    /* \"#utility.yul\":892:916   */\n  tag_29\n    /* \"#utility.yul\":910:915   */\n  dup3\n    /* \"#utility.yul\":892:916   */\n  tag_13\n  jump\t// in\ntag_29:\n    /* \"#utility.yul\":881:916   */\n  swap1\n  pop\n    /* \"#utility.yul\":826:922   */\n  swap2\n  swap1\n  pop\n  jump\t// out\n    /* \"#utility.yul\":928:1050   */\ntag_15:\n    /* \"#utility.yul\":1001:1025   */\n  tag_31\n    /* \"#utility.yul\":1019:1024   */\n  dup2\n    /* \"#utility.yul\":1001:1025   */\n  tag_14\n  jump\t// in\ntag_31:\n    /* \"#utility.yul\":994:999   */\n  dup2\n    /* \"#utility.yul\":991:1026   */\n  eq\n    /* \"#utility.yul\":981:1044   */\n  tag_32\n  jumpi\n    /* \"#utility.yul\":1040:1041   */\n  0x00\n    /* \"#utility.yul\":1037:1038   */\n  dup1\n    /* \"#utility.yul\":1030:1042   */\n  revert\n    /* \"#utility.yul\":981:1044   */\ntag_32:\n    /* \"#utility.yul\":928:1050   */\n  pop\n  jump\t// out\n    /* \"#utility.yul\":1056:1199   */\ntag_16:\n    /* \"#utility.yul\":1113:1118   */\n  0x00\n    /* \"#utility.yul\":1144:1150   */\n  dup2\n    /* \"#utility.yul\":1138:1151   */\n  mload\n    /* \"#utility.yul\":1129:1151   */\n  swap1\n  pop\n    /* \"#utility.yul\":1160:1193   */\n  tag_34\n    /* \"#utility.yul\":1187:1192   */\n  dup2\n    /* \"#utility.yul\":1160:1193   */\n  tag_15\n  jump\t// in\ntag_34:\n    /* \"#utility.yul\":1056:1199   */\n  swap3\n  swap2\n  pop\n  pop\n  jump\t// out\n    /* \"#utility.yul\":1205:1712   */\ntag_3:\n    /* \"#utility.yul\":1284:1290   */\n  0x00\n    /* \"#utility.yul\":1292:1298   */\n  dup1\n    /* \"#utility.yul\":1341:1343   */\n  0x40\n    /* \"#utility.yul\":1329:1338   */\n  dup4\n    /* \"#utility.yul\":1320:1327   */\n  dup6\n    /* \"#utility.yul\":1316:1339   */\n  sub\n    /* \"#utility.yul\":1312:1344   */\n  slt\n    /* \"#utility.yul\":1309:1428   */\n  iszero\n  tag_36\n  jumpi\n    /* \"#utility.yul\":1347:1426   */\n  tag_37\n  tag_8\n  jump\t// in\ntag_37:\n    /* \"#utility.yul\":1309:1428   */\ntag_36:\n    /* \"#utility.yul\":1467:1468   */\n  0x00\n    /* \"#utility.yul\":1492:1556   */\n  tag_38\n    /* \"#utility.yul\":1548:1555   */\n  dup6\n    /* \"#utility.yul\":1539:1545   */\n  dup3\n    /* \"#utility.yul\":1528:1537   */\n  dup7\n    /* \"#utility.yul\":1524:1546   */\n  add\n    /* \"#utility.yul\":1492:1556   */\n  tag_12\n  jump\t// in\ntag_38:\n    /* \"#utility.yul\":1482:1556   */\n  swap3\n  pop\n    /* \"#utility.yul\":1438:1566   */\n  pop\n    /* \"#utility.yul\":1605:1607   */\n  0x20\n    /* \"#utility.yul\":1631:1695   */\n  tag_39\n    /* \"#utility.yul\":1687:1694   */\n  dup6\n    /* \"#utility.yul\":1678:1684   */\n  dup3\n    /* \"#utility.yul\":1667:1676   */\n  dup7\n    /* \"#utility.yul\":1663:1685   */\n  add\n    /* \"#utility.yul\":1631:1695   */\n  tag_16\n  jump\t// in\ntag_39:\n    /* \"#utility.yul\":1621:1695   */\n  swap2\n  pop\n    /* \"#utility.yul\":1576:1705   */\n  pop\n    /* \"#utility.yul\":1205:1712   */\n  swap3\n  pop\n  swap3\n  swap1\n  pop\n  jump\t// out\n    /* \"Campaign.sol\":432:2576  contract Campaign {... */\ntag_6:\n  dataSize(sub_0)\n  dup1\n  dataOffset(sub_0)\n  0x00\n  codecopy\n  0x00\n  return\nstop\n\nsub_0: assembly {\n        /* \"Campaign.sol\":432:2576  contract Campaign {... */\n      mstore(0x40, 0x80)\n      jumpi(tag_1, lt(calldatasize, 0x04))\n      shr(0xe0, calldataload(0x00))\n      dup1\n      0x82fde093\n      gt\n      tag_14\n      jumpi\n      dup1\n      0x82fde093\n      eq\n      tag_8\n      jumpi\n      dup1\n      0x8a9cfd55\n      eq\n      tag_9\n      jumpi\n      dup1\n      0x937e09b1\n      eq\n      tag_10\n      jumpi\n      dup1\n      0x9fb42b1f\n      eq\n      tag_11\n      jumpi\n      dup1\n      0xd7bb99ba\n      eq\n      tag_12\n      jumpi\n      dup1\n      0xd7d1bbdb\n      eq\n      tag_13\n      jumpi\n      jump(tag_1)\n    tag_14:\n      dup1\n      0x03441006\n      eq\n      tag_2\n      jumpi\n      dup1\n      0x0a144391\n      eq\n      tag_3\n      jumpi\n      dup1\n      0x3410452a\n      eq\n      tag_4\n      jumpi\n      dup1\n      0x4051ddac\n      eq\n      tag_5\n      jumpi\n      dup1\n      0x481c6a75\n      eq\n      tag_6\n      jumpi\n      dup1\n      0x81d12c58\n      eq\n      tag_7\n      jumpi\n    tag_1:\n      0x00\n      dup1\n      revert\n        /* \"Campaign.sol\":1908:2270  function finalizeRequest(uint index) public payable restricted {... */\n    tag_2:\n      tag_15\n      0x04\n      dup1\n      calldatasize\n      sub\n      dup2\n      add\n      swap1\n      tag_16\n      swap2\n      swap1\n      tag_17\n      jump\t// in\n    tag_16:\n      tag_18\n      jump\t// in\n    tag_15:\n      stop\n        /* \"Campaign.sol\":756:797  mapping(address => bool) public approvers */\n    tag_3:\n      callvalue\n      dup1\n      iszero\n      tag_19\n      jumpi\n      0x00\n      dup1\n      revert\n    tag_19:\n      pop\n      tag_20\n      0x04\n      dup1\n      calldatasize\n      sub\n      dup2\n      add\n      swap1\n      tag_21\n      swap2\n      swap1\n      tag_22\n      jump\t// in\n    tag_21:\n      tag_23\n      jump\t// in\n    tag_20:\n      mload(0x40)\n      tag_24\n      swap2\n      swap1\n      tag_25\n      jump\t// in\n    tag_24:\n      mload(0x40)\n      dup1\n      swap2\n      sub\n      swap1\n      return\n        /* \"Campaign.sol\":2490:2574  function getRequestsCount() public view returns (uint) {... */\n    tag_4:\n      callvalue\n      dup1\n      iszero\n      tag_26\n      jumpi\n      0x00\n      dup1\n      revert\n    tag_26:\n      pop\n      tag_27\n      tag_28\n      jump\t// in\n    tag_27:\n      mload(0x40)\n      tag_29\n      swap2\n      swap1\n      tag_30\n      jump\t// in\n    tag_29:\n      mload(0x40)\n      dup1\n      swap2\n      sub\n      swap1\n      return\n        /* \"Campaign.sol\":2274:2486  function getSummary() public view returns (uint, uint, uint, uint, address) {... */\n    tag_5:\n      callvalue\n      dup1\n      iszero\n      tag_31\n      jumpi\n      0x00\n      dup1\n      revert\n    tag_31:\n      pop\n      tag_32\n      tag_33\n      jump\t// in\n    tag_32:\n      mload(0x40)\n      tag_34\n      swap6\n      swap5\n      swap4\n      swap3\n      swap2\n      swap1\n      tag_35\n      jump\t// in\n    tag_34:\n      mload(0x40)\n      dup1\n      swap2\n      sub\n      swap1\n      return\n        /* \"Campaign.sol\":695:717  address public manager */\n    tag_6:\n      callvalue\n      dup1\n      iszero\n      tag_36\n      jumpi\n      0x00\n      dup1\n      revert\n    tag_36:\n      pop\n      tag_37\n      tag_38\n      jump\t// in\n    tag_37:\n      mload(0x40)\n      tag_39\n      swap2\n      swap1\n      tag_40\n      jump\t// in\n    tag_39:\n      mload(0x40)\n      dup1\n      swap2\n      sub\n      swap1\n      return\n        /* \"Campaign.sol\":624:664  mapping(uint => Request) public requests */\n    tag_7:\n      callvalue\n      dup1\n      iszero\n      tag_41\n      jumpi\n      0x00\n      dup1\n      revert\n    tag_41:\n      pop\n      tag_42\n      0x04\n      dup1\n      calldatasize\n      sub\n      dup2\n      add\n      swap1\n      tag_43\n      swap2\n      swap1\n      tag_17\n      jump\t// in\n    tag_43:\n      tag_44\n      jump\t// in\n    tag_42:\n      mload(0x40)\n      tag_45\n      swap6\n      swap5\n      swap4\n      swap3\n      swap2\n      swap1\n      tag_46\n      jump\t// in\n    tag_45:\n      mload(0x40)\n      dup1\n      swap2\n      sub\n      swap1\n      return\n        /* \"Campaign.sol\":801:827  uint public approversCount */\n    tag_8:\n      callvalue\n      dup1\n      iszero\n      tag_47\n      jumpi\n      0x00\n      dup1\n      revert\n    tag_47:\n      pop\n      tag_48\n      tag_49\n      jump\t// in\n    tag_48:\n      mload(0x40)\n      tag_50\n      swap2\n      swap1\n      tag_30\n      jump\t// in\n    tag_50:\n      mload(0x40)\n      dup1\n      swap2\n      sub\n      swap1\n      return\n        /* \"Campaign.sol\":1231:1593  function createRequest(string memory _description, uint _value, address _recipient) public restricted {... */\n    tag_9:\n      callvalue\n      dup1\n      iszero\n      tag_51\n      jumpi\n      0x00\n      dup1\n      revert\n    tag_51:\n      pop\n      tag_52\n      0x04\n      dup1\n      calldatasize\n      sub\n      dup2\n      add\n      swap1\n      tag_53\n      swap2\n      swap1\n      tag_54\n      jump\t// in\n    tag_53:\n      tag_55\n      jump\t// in\n    tag_52:\n      stop\n        /* \"Campaign.sol\":721:752  uint public minimumContribution */\n    tag_10:\n      callvalue\n      dup1\n      iszero\n      tag_56\n      jumpi\n      0x00\n      dup1\n      revert\n    tag_56:\n      pop\n      tag_57\n      tag_58\n      jump\t// in\n    tag_57:\n      mload(0x40)\n      tag_59\n      swap2\n      swap1\n      tag_30\n      jump\t// in\n    tag_59:\n      mload(0x40)\n      dup1\n      swap2\n      sub\n      swap1\n      return\n        /* \"Campaign.sol\":668:691  uint public numRequests */\n    tag_11:\n      callvalue\n      dup1\n      iszero\n      tag_60\n      jumpi\n      0x00\n      dup1\n      revert\n    tag_60:\n      pop\n      tag_61\n      tag_62\n      jump\t// in\n    tag_61:\n      mload(0x40)\n      tag_63\n      swap2\n      swap1\n      tag_30\n      jump\t// in\n    tag_63:\n      mload(0x40)\n      dup1\n      swap2\n      sub\n      swap1\n      return\n        /* \"Campaign.sol\":1040:1227  function contribute() public payable {... */\n    tag_12:\n      tag_64\n      tag_65\n      jump\t// in\n    tag_64:\n      stop\n        /* \"Campaign.sol\":1597:1904  function approveRequest(uint index) public {... */\n    tag_13:\n      callvalue\n      dup1\n      iszero\n      tag_66\n      jumpi\n      0x00\n      dup1\n      revert\n    tag_66:\n      pop\n      tag_67\n      0x04\n      dup1\n      calldatasize\n      sub\n      dup2\n      add\n      swap1\n      tag_68\n      swap2\n      swap1\n      tag_17\n      jump\t// in\n    tag_68:\n      tag_69\n      jump\t// in\n    tag_67:\n      stop\n        /* \"Campaign.sol\":1908:2270  function finalizeRequest(uint index) public payable restricted {... */\n    tag_18:\n        /* \"Campaign.sol\":882:889  manager */\n      0x02\n      0x00\n      swap1\n      sload\n      swap1\n      0x0100\n      exp\n      swap1\n      div\n      0xffffffffffffffffffffffffffffffffffffffff\n      and\n        /* \"Campaign.sol\":868:889  msg.sender == manager */\n      0xffffffffffffffffffffffffffffffffffffffff\n      and\n        /* \"Campaign.sol\":868:878  msg.sender */\n      caller\n        /* \"Campaign.sol\":868:889  msg.sender == manager */\n      0xffffffffffffffffffffffffffffffffffffffff\n      and\n      eq\n        /* \"Campaign.sol\":860:914  require(msg.sender == manager, \"You need to be admin\") */\n      tag_71\n      jumpi\n      mload(0x40)\n      0x08c379a000000000000000000000000000000000000000000000000000000000\n      dup2\n      mstore\n      0x04\n      add\n      tag_72\n      swap1\n      tag_73\n      jump\t// in\n    tag_72:\n      mload(0x40)\n      dup1\n      swap2\n      sub\n      swap1\n      revert\n    tag_71:\n        /* \"Campaign.sol\":1977:2000  Request storage request */\n      0x00\n        /* \"Campaign.sol\":2003:2011  requests */\n      dup1\n        /* \"Campaign.sol\":2003:2018  requests[index] */\n      0x00\n        /* \"Campaign.sol\":2012:2017  index */\n      dup4\n        /* \"Campaign.sol\":2003:2018  requests[index] */\n      dup2\n      mstore\n      0x20\n      add\n      swap1\n      dup2\n      mstore\n      0x20\n      add\n      0x00\n      keccak256\n        /* \"Campaign.sol\":1977:2018  Request storage request = requests[index] */\n      swap1\n      pop\n        /* \"Campaign.sol\":2074:2075  2 */\n      0x02\n        /* \"Campaign.sol\":2057:2071  approversCount */\n      sload(0x05)\n        /* \"Campaign.sol\":2057:2075  approversCount / 2 */\n      tag_75\n      swap2\n      swap1\n      tag_76\n      jump\t// in\n    tag_75:\n        /* \"Campaign.sol\":2032:2039  request */\n      dup2\n        /* \"Campaign.sol\":2032:2053  request.approvalCount */\n      0x03\n      add\n      sload\n        /* \"Campaign.sol\":2032:2076  request.approvalCount > (approversCount / 2) */\n      gt\n        /* \"Campaign.sol\":2024:2115  require(request.approvalCount > (approversCount / 2), \"You can't finalize the request yet\") */\n      tag_77\n      jumpi\n      mload(0x40)\n      0x08c379a000000000000000000000000000000000000000000000000000000000\n      dup2\n      mstore\n      0x04\n      add\n      tag_78\n      swap1\n      tag_79\n      jump\t// in\n    tag_78:\n      mload(0x40)\n      dup1\n      swap2\n      sub\n      swap1\n      revert\n    tag_77:\n        /* \"Campaign.sol\":2130:2137  request */\n      dup1\n        /* \"Campaign.sol\":2130:2146  request.complete */\n      0x02\n      add\n      0x00\n      swap1\n      sload\n      swap1\n      0x0100\n      exp\n      swap1\n      div\n      0xff\n      and\n        /* \"Campaign.sol\":2129:2146  !request.complete */\n      iszero\n        /* \"Campaign.sol\":2121:2179  require(!request.complete, \"Request is already completed\") */\n      tag_80\n      jumpi\n      mload(0x40)\n      0x08c379a000000000000000000000000000000000000000000000000000000000\n      dup2\n      mstore\n      0x04\n      add\n      tag_81\n      swap1\n      tag_82\n      jump\t// in\n    tag_81:\n      mload(0x40)\n      dup1\n      swap2\n      sub\n      swap1\n      revert\n    tag_80:\n        /* \"Campaign.sol\":2194:2201  request */\n      dup1\n        /* \"Campaign.sol\":2194:2211  request.recipient */\n      0x02\n      add\n      0x01\n      swap1\n      sload\n      swap1\n      0x0100\n      exp\n      swap1\n      div\n      0xffffffffffffffffffffffffffffffffffffffff\n      and\n        /* \"Campaign.sol\":2186:2221  payable(request.recipient).transfer */\n      0xffffffffffffffffffffffffffffffffffffffff\n      and\n        /* \"Campaign.sol\":2186:2236  payable(request.recipient).transfer(request.value) */\n      0x08fc\n        /* \"Campaign.sol\":2222:2229  request */\n      dup3\n        /* \"Campaign.sol\":2222:2235  request.value */\n      0x01\n      add\n      sload\n        /* \"Campaign.sol\":2186:2236  payable(request.recipient).transfer(request.value) */\n      swap1\n      dup2\n      iszero\n      mul\n      swap1\n      mload(0x40)\n      0x00\n      mload(0x40)\n      dup1\n      dup4\n      sub\n      dup2\n      dup6\n      dup9\n      dup9\n      call\n      swap4\n      pop\n      pop\n      pop\n      pop\n      iszero\n      dup1\n      iszero\n      tag_84\n      jumpi\n      returndatasize\n      0x00\n      dup1\n      returndatacopy\n      revert(0x00, returndatasize)\n    tag_84:\n      pop\n        /* \"Campaign.sol\":2261:2265  true */\n      0x01\n        /* \"Campaign.sol\":2242:2249  request */\n      dup2\n        /* \"Campaign.sol\":2242:2258  request.complete */\n      0x02\n      add\n      0x00\n        /* \"Campaign.sol\":2242:2265  request.complete = true */\n      0x0100\n      exp\n      dup2\n      sload\n      dup2\n      0xff\n      mul\n      not\n      and\n      swap1\n      dup4\n      iszero\n      iszero\n      mul\n      or\n      swap1\n      sstore\n      pop\n        /* \"Campaign.sol\":1971:2270  {... */\n      pop\n        /* \"Campaign.sol\":1908:2270  function finalizeRequest(uint index) public payable restricted {... */\n      pop\n      jump\t// out\n        /* \"Campaign.sol\":756:797  mapping(address => bool) public approvers */\n    tag_23:\n      mstore(0x20, 0x04)\n      dup1\n      0x00\n      mstore\n      keccak256(0x00, 0x40)\n      0x00\n      swap2\n      pop\n      sload\n      swap1\n      0x0100\n      exp\n      swap1\n      div\n      0xff\n      and\n      dup2\n      jump\t// out\n        /* \"Campaign.sol\":2490:2574  function getRequestsCount() public view returns (uint) {... */\n    tag_28:\n        /* \"Campaign.sol\":2539:2543  uint */\n      0x00\n        /* \"Campaign.sol\":2558:2569  numRequests */\n      sload(0x01)\n        /* \"Campaign.sol\":2551:2569  return numRequests */\n      swap1\n      pop\n        /* \"Campaign.sol\":2490:2574  function getRequestsCount() public view returns (uint) {... */\n      swap1\n      jump\t// out\n        /* \"Campaign.sol\":2274:2486  function getSummary() public view returns (uint, uint, uint, uint, address) {... */\n    tag_33:\n        /* \"Campaign.sol\":2317:2321  uint */\n      0x00\n        /* \"Campaign.sol\":2323:2327  uint */\n      dup1\n        /* \"Campaign.sol\":2329:2333  uint */\n      0x00\n        /* \"Campaign.sol\":2335:2339  uint */\n      dup1\n        /* \"Campaign.sol\":2341:2348  address */\n      0x00\n        /* \"Campaign.sol\":2371:2390  minimumContribution */\n      sload(0x03)\n        /* \"Campaign.sol\":2398:2419  address(this).balance */\n      selfbalance\n        /* \"Campaign.sol\":2427:2438  numRequests */\n      sload(0x01)\n        /* \"Campaign.sol\":2446:2460  approversCount */\n      sload(0x05)\n        /* \"Campaign.sol\":2468:2475  manager */\n      0x02\n      0x00\n      swap1\n      sload\n      swap1\n      0x0100\n      exp\n      swap1\n      div\n      0xffffffffffffffffffffffffffffffffffffffff\n      and\n        /* \"Campaign.sol\":2356:2481  return (... */\n      swap5\n      pop\n      swap5\n      pop\n      swap5\n      pop\n      swap5\n      pop\n      swap5\n      pop\n        /* \"Campaign.sol\":2274:2486  function getSummary() public view returns (uint, uint, uint, uint, address) {... */\n      swap1\n      swap2\n      swap3\n      swap4\n      swap5\n      jump\t// out\n        /* \"Campaign.sol\":695:717  address public manager */\n    tag_38:\n      0x02\n      0x00\n      swap1\n      sload\n      swap1\n      0x0100\n      exp\n      swap1\n      div\n      0xffffffffffffffffffffffffffffffffffffffff\n      and\n      dup2\n      jump\t// out\n        /* \"Campaign.sol\":624:664  mapping(uint => Request) public requests */\n    tag_44:\n      mstore(0x20, 0x00)\n      dup1\n      0x00\n      mstore\n      keccak256(0x00, 0x40)\n      0x00\n      swap2\n      pop\n      swap1\n      pop\n      dup1\n      0x00\n      add\n      dup1\n      sload\n      tag_87\n      swap1\n      tag_88\n      jump\t// in\n    tag_87:\n      dup1\n      0x1f\n      add\n      0x20\n      dup1\n      swap2\n      div\n      mul\n      0x20\n      add\n      mload(0x40)\n      swap1\n      dup2\n      add\n      0x40\n      mstore\n      dup1\n      swap3\n      swap2\n      swap1\n      dup2\n      dup2\n      mstore\n      0x20\n      add\n      dup3\n      dup1\n      sload\n      tag_89\n      swap1\n      tag_88\n      jump\t// in\n    tag_89:\n      dup1\n      iszero\n      tag_90\n      jumpi\n      dup1\n      0x1f\n      lt\n      tag_91\n      jumpi\n      0x0100\n      dup1\n      dup4\n      sload\n      div\n      mul\n      dup4\n      mstore\n      swap2\n      0x20\n      add\n      swap2\n      jump(tag_90)\n    tag_91:\n      dup3\n      add\n      swap2\n      swap1\n      0x00\n      mstore\n      keccak256(0x00, 0x20)\n      swap1\n    tag_92:\n      dup2\n      sload\n      dup2\n      mstore\n      swap1\n      0x01\n      add\n      swap1\n      0x20\n      add\n      dup1\n      dup4\n      gt\n      tag_92\n      jumpi\n      dup3\n      swap1\n      sub\n      0x1f\n      and\n      dup3\n      add\n      swap2\n    tag_90:\n      pop\n      pop\n      pop\n      pop\n      pop\n      swap1\n      dup1\n      0x01\n      add\n      sload\n      swap1\n      dup1\n      0x02\n      add\n      0x00\n      swap1\n      sload\n      swap1\n      0x0100\n      exp\n      swap1\n      div\n      0xff\n      and\n      swap1\n      dup1\n      0x02\n      add\n      0x01\n      swap1\n      sload\n      swap1\n      0x0100\n      exp\n      swap1\n      div\n      0xffffffffffffffffffffffffffffffffffffffff\n      and\n      swap1\n      dup1\n      0x03\n      add\n      sload\n      swap1\n      pop\n      dup6\n      jump\t// out\n        /* \"Campaign.sol\":801:827  uint public approversCount */\n    tag_49:\n      sload(0x05)\n      dup2\n      jump\t// out\n        /* \"Campaign.sol\":1231:1593  function createRequest(string memory _description, uint _value, address _recipient) public restricted {... */\n    tag_55:\n        /* \"Campaign.sol\":882:889  manager */\n      0x02\n      0x00\n      swap1\n      sload\n      swap1\n      0x0100\n      exp\n      swap1\n      div\n      0xffffffffffffffffffffffffffffffffffffffff\n      and\n        /* \"Campaign.sol\":868:889  msg.sender == manager */\n      0xffffffffffffffffffffffffffffffffffffffff\n      and\n        /* \"Campaign.sol\":868:878  msg.sender */\n      caller\n        /* \"Campaign.sol\":868:889  msg.sender == manager */\n      0xffffffffffffffffffffffffffffffffffffffff\n      and\n      eq\n        /* \"Campaign.sol\":860:914  require(msg.sender == manager, \"You need to be admin\") */\n      tag_94\n      jumpi\n      mload(0x40)\n      0x08c379a000000000000000000000000000000000000000000000000000000000\n      dup2\n      mstore\n      0x04\n      add\n      tag_95\n      swap1\n      tag_73\n      jump\t// in\n    tag_95:\n      mload(0x40)\n      dup1\n      swap2\n      sub\n      swap1\n      revert\n    tag_94:\n        /* \"Campaign.sol\":1339:1365  Request storage newRequest */\n      0x00\n        /* \"Campaign.sol\":1368:1376  requests */\n      dup1\n        /* \"Campaign.sol\":1368:1389  requests[numRequests] */\n      0x00\n        /* \"Campaign.sol\":1377:1388  numRequests */\n      sload(0x01)\n        /* \"Campaign.sol\":1368:1389  requests[numRequests] */\n      dup2\n      mstore\n      0x20\n      add\n      swap1\n      dup2\n      mstore\n      0x20\n      add\n      0x00\n      keccak256\n        /* \"Campaign.sol\":1339:1389  Request storage newRequest = requests[numRequests] */\n      swap1\n      pop\n        /* \"Campaign.sol\":1420:1432  _description */\n      dup4\n        /* \"Campaign.sol\":1395:1405  newRequest */\n      dup2\n        /* \"Campaign.sol\":1395:1417  newRequest.description */\n      0x00\n      add\n        /* \"Campaign.sol\":1395:1432  newRequest.description = _description */\n      swap1\n      dup1\n      mload\n      swap1\n      0x20\n      add\n      swap1\n      tag_97\n      swap3\n      swap2\n      swap1\n      tag_98\n      jump\t// in\n    tag_97:\n      pop\n        /* \"Campaign.sol\":1457:1463  _value */\n      dup3\n        /* \"Campaign.sol\":1438:1448  newRequest */\n      dup2\n        /* \"Campaign.sol\":1438:1454  newRequest.value */\n      0x01\n      add\n        /* \"Campaign.sol\":1438:1463  newRequest.value = _value */\n      dup2\n      swap1\n      sstore\n      pop\n        /* \"Campaign.sol\":1492:1502  _recipient */\n      dup2\n        /* \"Campaign.sol\":1469:1479  newRequest */\n      dup2\n        /* \"Campaign.sol\":1469:1489  newRequest.recipient */\n      0x02\n      add\n      0x01\n        /* \"Campaign.sol\":1469:1502  newRequest.recipient = _recipient */\n      0x0100\n      exp\n      dup2\n      sload\n      dup2\n      0xffffffffffffffffffffffffffffffffffffffff\n      mul\n      not\n      and\n      swap1\n      dup4\n      0xffffffffffffffffffffffffffffffffffffffff\n      and\n      mul\n      or\n      swap1\n      sstore\n      pop\n        /* \"Campaign.sol\":1530:1535  false */\n      0x00\n        /* \"Campaign.sol\":1508:1518  newRequest */\n      dup2\n        /* \"Campaign.sol\":1508:1527  newRequest.complete */\n      0x02\n      add\n      0x00\n        /* \"Campaign.sol\":1508:1535  newRequest.complete = false */\n      0x0100\n      exp\n      dup2\n      sload\n      dup2\n      0xff\n      mul\n      not\n      and\n      swap1\n      dup4\n      iszero\n      iszero\n      mul\n      or\n      swap1\n      sstore\n      pop\n        /* \"Campaign.sol\":1568:1569  0 */\n      0x00\n        /* \"Campaign.sol\":1541:1551  newRequest */\n      dup2\n        /* \"Campaign.sol\":1541:1565  newRequest.approvalCount */\n      0x03\n      add\n        /* \"Campaign.sol\":1541:1569  newRequest.approvalCount = 0 */\n      dup2\n      swap1\n      sstore\n      pop\n        /* \"Campaign.sol\":1575:1586  numRequests */\n      0x01\n      0x00\n        /* \"Campaign.sol\":1575:1588  numRequests++ */\n      dup2\n      sload\n      dup1\n      swap3\n      swap2\n      swap1\n      tag_99\n      swap1\n      tag_100\n      jump\t// in\n    tag_99:\n      swap2\n      swap1\n      pop\n      sstore\n      pop\n        /* \"Campaign.sol\":1333:1593  {... */\n      pop\n        /* \"Campaign.sol\":1231:1593  function createRequest(string memory _description, uint _value, address _recipient) public restricted {... */\n      pop\n      pop\n      pop\n      jump\t// out\n        /* \"Campaign.sol\":721:752  uint public minimumContribution */\n    tag_58:\n      sload(0x03)\n      dup2\n      jump\t// out\n        /* \"Campaign.sol\":668:691  uint public numRequests */\n    tag_62:\n      sload(0x01)\n      dup2\n      jump\t// out\n        /* \"Campaign.sol\":1040:1227  function contribute() public payable {... */\n    tag_65:\n        /* \"Campaign.sol\":1103:1122  minimumContribution */\n      sload(0x03)\n        /* \"Campaign.sol\":1091:1100  msg.value */\n      callvalue\n        /* \"Campaign.sol\":1091:1122  msg.value > minimumContribution */\n      gt\n        /* \"Campaign.sol\":1083:1166  require(msg.value > minimumContribution, \"Can't be less than minimum contribution\") */\n      tag_102\n      jumpi\n      mload(0x40)\n      0x08c379a000000000000000000000000000000000000000000000000000000000\n      dup2\n      mstore\n      0x04\n      add\n      tag_103\n      swap1\n      tag_104\n      jump\t// in\n    tag_103:\n      mload(0x40)\n      dup1\n      swap2\n      sub\n      swap1\n      revert\n    tag_102:\n        /* \"Campaign.sol\":1196:1200  true */\n      0x01\n        /* \"Campaign.sol\":1172:1181  approvers */\n      0x04\n        /* \"Campaign.sol\":1172:1193  approvers[msg.sender] */\n      0x00\n        /* \"Campaign.sol\":1182:1192  msg.sender */\n      caller\n        /* \"Campaign.sol\":1172:1193  approvers[msg.sender] */\n      0xffffffffffffffffffffffffffffffffffffffff\n      and\n      0xffffffffffffffffffffffffffffffffffffffff\n      and\n      dup2\n      mstore\n      0x20\n      add\n      swap1\n      dup2\n      mstore\n      0x20\n      add\n      0x00\n      keccak256\n      0x00\n        /* \"Campaign.sol\":1172:1200  approvers[msg.sender] = true */\n      0x0100\n      exp\n      dup2\n      sload\n      dup2\n      0xff\n      mul\n      not\n      and\n      swap1\n      dup4\n      iszero\n      iszero\n      mul\n      or\n      swap1\n      sstore\n      pop\n        /* \"Campaign.sol\":1206:1220  approversCount */\n      0x05\n      0x00\n        /* \"Campaign.sol\":1206:1222  approversCount++ */\n      dup2\n      sload\n      dup1\n      swap3\n      swap2\n      swap1\n      tag_105\n      swap1\n      tag_100\n      jump\t// in\n    tag_105:\n      swap2\n      swap1\n      pop\n      sstore\n      pop\n        /* \"Campaign.sol\":1040:1227  function contribute() public payable {... */\n      jump\t// out\n        /* \"Campaign.sol\":1597:1904  function approveRequest(uint index) public {... */\n    tag_69:\n        /* \"Campaign.sol\":1646:1669  Request storage request */\n      0x00\n        /* \"Campaign.sol\":1672:1680  requests */\n      dup1\n        /* \"Campaign.sol\":1672:1687  requests[index] */\n      0x00\n        /* \"Campaign.sol\":1681:1686  index */\n      dup4\n        /* \"Campaign.sol\":1672:1687  requests[index] */\n      dup2\n      mstore\n      0x20\n      add\n      swap1\n      dup2\n      mstore\n      0x20\n      add\n      0x00\n      keccak256\n        /* \"Campaign.sol\":1646:1687  Request storage request = requests[index] */\n      swap1\n      pop\n        /* \"Campaign.sol\":1702:1711  approvers */\n      0x04\n        /* \"Campaign.sol\":1702:1723  approvers[msg.sender] */\n      0x00\n        /* \"Campaign.sol\":1712:1722  msg.sender */\n      caller\n        /* \"Campaign.sol\":1702:1723  approvers[msg.sender] */\n      0xffffffffffffffffffffffffffffffffffffffff\n      and\n      0xffffffffffffffffffffffffffffffffffffffff\n      and\n      dup2\n      mstore\n      0x20\n      add\n      swap1\n      dup2\n      mstore\n      0x20\n      add\n      0x00\n      keccak256\n      0x00\n      swap1\n      sload\n      swap1\n      0x0100\n      exp\n      swap1\n      div\n      0xff\n      and\n        /* \"Campaign.sol\":1694:1755  require(approvers[msg.sender], \"You need to be one approver\") */\n      tag_107\n      jumpi\n      mload(0x40)\n      0x08c379a000000000000000000000000000000000000000000000000000000000\n      dup2\n      mstore\n      0x04\n      add\n      tag_108\n      swap1\n      tag_109\n      jump\t// in\n    tag_108:\n      mload(0x40)\n      dup1\n      swap2\n      sub\n      swap1\n      revert\n    tag_107:\n        /* \"Campaign.sol\":1770:1777  request */\n      dup1\n        /* \"Campaign.sol\":1770:1787  request.approvals */\n      0x04\n      add\n        /* \"Campaign.sol\":1770:1799  request.approvals[msg.sender] */\n      0x00\n        /* \"Campaign.sol\":1788:1798  msg.sender */\n      caller\n        /* \"Campaign.sol\":1770:1799  request.approvals[msg.sender] */\n      0xffffffffffffffffffffffffffffffffffffffff\n      and\n      0xffffffffffffffffffffffffffffffffffffffff\n      and\n      dup2\n      mstore\n      0x20\n      add\n      swap1\n      dup2\n      mstore\n      0x20\n      add\n      0x00\n      keccak256\n      0x00\n      swap1\n      sload\n      swap1\n      0x0100\n      exp\n      swap1\n      div\n      0xff\n      and\n        /* \"Campaign.sol\":1769:1799  !request.approvals[msg.sender] */\n      iszero\n        /* \"Campaign.sol\":1761:1827  require(!request.approvals[msg.sender], \"You can't approve again\") */\n      tag_110\n      jumpi\n      mload(0x40)\n      0x08c379a000000000000000000000000000000000000000000000000000000000\n      dup2\n      mstore\n      0x04\n      add\n      tag_111\n      swap1\n      tag_112\n      jump\t// in\n    tag_111:\n      mload(0x40)\n      dup1\n      swap2\n      sub\n      swap1\n      revert\n    tag_110:\n        /* \"Campaign.sol\":1866:1870  true */\n      0x01\n        /* \"Campaign.sol\":1834:1841  request */\n      dup2\n        /* \"Campaign.sol\":1834:1851  request.approvals */\n      0x04\n      add\n        /* \"Campaign.sol\":1834:1863  request.approvals[msg.sender] */\n      0x00\n        /* \"Campaign.sol\":1852:1862  msg.sender */\n      caller\n        /* \"Campaign.sol\":1834:1863  request.approvals[msg.sender] */\n      0xffffffffffffffffffffffffffffffffffffffff\n      and\n      0xffffffffffffffffffffffffffffffffffffffff\n      and\n      dup2\n      mstore\n      0x20\n      add\n      swap1\n      dup2\n      mstore\n      0x20\n      add\n      0x00\n      keccak256\n      0x00\n        /* \"Campaign.sol\":1834:1870  request.approvals[msg.sender] = true */\n      0x0100\n      exp\n      dup2\n      sload\n      dup2\n      0xff\n      mul\n      not\n      and\n      swap1\n      dup4\n      iszero\n      iszero\n      mul\n      or\n      swap1\n      sstore\n      pop\n        /* \"Campaign.sol\":1876:1883  request */\n      dup1\n        /* \"Campaign.sol\":1876:1897  request.approvalCount */\n      0x03\n      add\n      0x00\n        /* \"Campaign.sol\":1876:1899  request.approvalCount++ */\n      dup2\n      sload\n      dup1\n      swap3\n      swap2\n      swap1\n      tag_113\n      swap1\n      tag_100\n      jump\t// in\n    tag_113:\n      swap2\n      swap1\n      pop\n      sstore\n      pop\n        /* \"Campaign.sol\":1640:1904  {... */\n      pop\n        /* \"Campaign.sol\":1597:1904  function approveRequest(uint index) public {... */\n      pop\n      jump\t// out\n    tag_98:\n      dup3\n      dup1\n      sload\n      tag_114\n      swap1\n      tag_88\n      jump\t// in\n    tag_114:\n      swap1\n      0x00\n      mstore\n      keccak256(0x00, 0x20)\n      swap1\n      0x1f\n      add\n      0x20\n      swap1\n      div\n      dup2\n      add\n      swap3\n      dup3\n      tag_116\n      jumpi\n      0x00\n      dup6\n      sstore\n      jump(tag_115)\n    tag_116:\n      dup3\n      0x1f\n      lt\n      tag_117\n      jumpi\n      dup1\n      mload\n      not(0xff)\n      and\n      dup4\n      dup1\n      add\n      or\n      dup6\n      sstore\n      jump(tag_115)\n    tag_117:\n      dup3\n      dup1\n      add\n      0x01\n      add\n      dup6\n      sstore\n      dup3\n      iszero\n      tag_115\n      jumpi\n      swap2\n      dup3\n      add\n    tag_118:\n      dup3\n      dup2\n      gt\n      iszero\n      tag_119\n      jumpi\n      dup3\n      mload\n      dup3\n      sstore\n      swap2\n      0x20\n      add\n      swap2\n      swap1\n      0x01\n      add\n      swap1\n      jump(tag_118)\n    tag_119:\n    tag_115:\n      pop\n      swap1\n      pop\n      tag_120\n      swap2\n      swap1\n      tag_121\n      jump\t// in\n    tag_120:\n      pop\n      swap1\n      jump\t// out\n    tag_121:\n    tag_122:\n      dup1\n      dup3\n      gt\n      iszero\n      tag_123\n      jumpi\n      0x00\n      dup2\n      0x00\n      swap1\n      sstore\n      pop\n      0x01\n      add\n      jump(tag_122)\n    tag_123:\n      pop\n      swap1\n      jump\t// out\n        /* \"#utility.yul\":7:82   */\n    tag_124:\n        /* \"#utility.yul\":40:46   */\n      0x00\n        /* \"#utility.yul\":73:75   */\n      0x40\n        /* \"#utility.yul\":67:76   */\n      mload\n        /* \"#utility.yul\":57:76   */\n      swap1\n      pop\n        /* \"#utility.yul\":7:82   */\n      swap1\n      jump\t// out\n        /* \"#utility.yul\":88:205   */\n    tag_125:\n        /* \"#utility.yul\":197:198   */\n      0x00\n        /* \"#utility.yul\":194:195   */\n      dup1\n        /* \"#utility.yul\":187:199   */\n      revert\n        /* \"#utility.yul\":211:328   */\n    tag_126:\n        /* \"#utility.yul\":320:321   */\n      0x00\n        /* \"#utility.yul\":317:318   */\n      dup1\n        /* \"#utility.yul\":310:322   */\n      revert\n        /* \"#utility.yul\":334:411   */\n    tag_127:\n        /* \"#utility.yul\":371:378   */\n      0x00\n        /* \"#utility.yul\":400:405   */\n      dup2\n        /* \"#utility.yul\":389:405   */\n      swap1\n      pop\n        /* \"#utility.yul\":334:411   */\n      swap2\n      swap1\n      pop\n      jump\t// out\n        /* \"#utility.yul\":417:539   */\n    tag_128:\n        /* \"#utility.yul\":490:514   */\n      tag_173\n        /* \"#utility.yul\":508:513   */\n      dup2\n        /* \"#utility.yul\":490:514   */\n      tag_127\n      jump\t// in\n    tag_173:\n        /* \"#utility.yul\":483:488   */\n      dup2\n        /* \"#utility.yul\":480:515   */\n      eq\n        /* \"#utility.yul\":470:533   */\n      tag_174\n      jumpi\n        /* \"#utility.yul\":529:530   */\n      0x00\n        /* \"#utility.yul\":526:527   */\n      dup1\n        /* \"#utility.yul\":519:531   */\n      revert\n        /* \"#utility.yul\":470:533   */\n    tag_174:\n        /* \"#utility.yul\":417:539   */\n      pop\n      jump\t// out\n        /* \"#utility.yul\":545:684   */\n    tag_129:\n        /* \"#utility.yul\":591:596   */\n      0x00\n        /* \"#utility.yul\":629:635   */\n      dup2\n        /* \"#utility.yul\":616:636   */\n      calldataload\n        /* \"#utility.yul\":607:636   */\n      swap1\n      pop\n        /* \"#utility.yul\":645:678   */\n      tag_176\n        /* \"#utility.yul\":672:677   */\n      dup2\n        /* \"#utility.yul\":645:678   */\n      tag_128\n      jump\t// in\n    tag_176:\n        /* \"#utility.yul\":545:684   */\n      swap3\n      swap2\n      pop\n      pop\n      jump\t// out\n        /* \"#utility.yul\":690:1019   */\n    tag_17:\n        /* \"#utility.yul\":749:755   */\n      0x00\n        /* \"#utility.yul\":798:800   */\n      0x20\n        /* \"#utility.yul\":786:795   */\n      dup3\n        /* \"#utility.yul\":777:784   */\n      dup5\n        /* \"#utility.yul\":773:796   */\n      sub\n        /* \"#utility.yul\":769:801   */\n      slt\n        /* \"#utility.yul\":766:885   */\n      iszero\n      tag_178\n      jumpi\n        /* \"#utility.yul\":804:883   */\n      tag_179\n      tag_125\n      jump\t// in\n    tag_179:\n        /* \"#utility.yul\":766:885   */\n    tag_178:\n        /* \"#utility.yul\":924:925   */\n      0x00\n        /* \"#utility.yul\":949:1002   */\n      tag_180\n        /* \"#utility.yul\":994:1001   */\n      dup5\n        /* \"#utility.yul\":985:991   */\n      dup3\n        /* \"#utility.yul\":974:983   */\n      dup6\n        /* \"#utility.yul\":970:992   */\n      add\n        /* \"#utility.yul\":949:1002   */\n      tag_129\n      jump\t// in\n    tag_180:\n        /* \"#utility.yul\":939:1002   */\n      swap2\n      pop\n        /* \"#utility.yul\":895:1012   */\n      pop\n        /* \"#utility.yul\":690:1019   */\n      swap3\n      swap2\n      pop\n      pop\n      jump\t// out\n        /* \"#utility.yul\":1025:1151   */\n    tag_130:\n        /* \"#utility.yul\":1062:1069   */\n      0x00\n        /* \"#utility.yul\":1102:1144   */\n      0xffffffffffffffffffffffffffffffffffffffff\n        /* \"#utility.yul\":1095:1100   */\n      dup3\n        /* \"#utility.yul\":1091:1145   */\n      and\n        /* \"#utility.yul\":1080:1145   */\n      swap1\n      pop\n        /* \"#utility.yul\":1025:1151   */\n      swap2\n      swap1\n      pop\n      jump\t// out\n        /* \"#utility.yul\":1157:1253   */\n    tag_131:\n        /* \"#utility.yul\":1194:1201   */\n      0x00\n        /* \"#utility.yul\":1223:1247   */\n      tag_183\n        /* \"#utility.yul\":1241:1246   */\n      dup3\n        /* \"#utility.yul\":1223:1247   */\n      tag_130\n      jump\t// in\n    tag_183:\n        /* \"#utility.yul\":1212:1247   */\n      swap1\n      pop\n        /* \"#utility.yul\":1157:1253   */\n      swap2\n      swap1\n      pop\n      jump\t// out\n        /* \"#utility.yul\":1259:1381   */\n    tag_132:\n        /* \"#utility.yul\":1332:1356   */\n      tag_185\n        /* \"#utility.yul\":1350:1355   */\n      dup2\n        /* \"#utility.yul\":1332:1356   */\n      tag_131\n      jump\t// in\n    tag_185:\n        /* \"#utility.yul\":1325:1330   */\n      dup2\n        /* \"#utility.yul\":1322:1357   */\n      eq\n        /* \"#utility.yul\":1312:1375   */\n      tag_186\n      jumpi\n        /* \"#utility.yul\":1371:1372   */\n      0x00\n        /* \"#utility.yul\":1368:1369   */\n      dup1\n        /* \"#utility.yul\":1361:1373   */\n      revert\n        /* \"#utility.yul\":1312:1375   */\n    tag_186:\n        /* \"#utility.yul\":1259:1381   */\n      pop\n      jump\t// out\n        /* \"#utility.yul\":1387:1526   */\n    tag_133:\n        /* \"#utility.yul\":1433:1438   */\n      0x00\n        /* \"#utility.yul\":1471:1477   */\n      dup2\n        /* \"#utility.yul\":1458:1478   */\n      calldataload\n        /* \"#utility.yul\":1449:1478   */\n      swap1\n      pop\n        /* \"#utility.yul\":1487:1520   */\n      tag_188\n        /* \"#utility.yul\":1514:1519   */\n      dup2\n        /* \"#utility.yul\":1487:1520   */\n      tag_132\n      jump\t// in\n    tag_188:\n        /* \"#utility.yul\":1387:1526   */\n      swap3\n      swap2\n      pop\n      pop\n      jump\t// out\n        /* \"#utility.yul\":1532:1861   */\n    tag_22:\n        /* \"#utility.yul\":1591:1597   */\n      0x00\n        /* \"#utility.yul\":1640:1642   */\n      0x20\n        /* \"#utility.yul\":1628:1637   */\n      dup3\n        /* \"#utility.yul\":1619:1626   */\n      dup5\n        /* \"#utility.yul\":1615:1638   */\n      sub\n        /* \"#utility.yul\":1611:1643   */\n      slt\n        /* \"#utility.yul\":1608:1727   */\n      iszero\n      tag_190\n      jumpi\n        /* \"#utility.yul\":1646:1725   */\n      tag_191\n      tag_125\n      jump\t// in\n    tag_191:\n        /* \"#utility.yul\":1608:1727   */\n    tag_190:\n        /* \"#utility.yul\":1766:1767   */\n      0x00\n        /* \"#utility.yul\":1791:1844   */\n      tag_192\n        /* \"#utility.yul\":1836:1843   */\n      dup5\n        /* \"#utility.yul\":1827:1833   */\n      dup3\n        /* \"#utility.yul\":1816:1825   */\n      dup6\n        /* \"#utility.yul\":1812:1834   */\n      add\n        /* \"#utility.yul\":1791:1844   */\n      tag_133\n      jump\t// in\n    tag_192:\n        /* \"#utility.yul\":1781:1844   */\n      swap2\n      pop\n        /* \"#utility.yul\":1737:1854   */\n      pop\n        /* \"#utility.yul\":1532:1861   */\n      swap3\n      swap2\n      pop\n      pop\n      jump\t// out\n        /* \"#utility.yul\":1867:1957   */\n    tag_134:\n        /* \"#utility.yul\":1901:1908   */\n      0x00\n        /* \"#utility.yul\":1944:1949   */\n      dup2\n        /* \"#utility.yul\":1937:1950   */\n      iszero\n        /* \"#utility.yul\":1930:1951   */\n      iszero\n        /* \"#utility.yul\":1919:1951   */\n      swap1\n      pop\n        /* \"#utility.yul\":1867:1957   */\n      swap2\n      swap1\n      pop\n      jump\t// out\n        /* \"#utility.yul\":1963:2072   */\n    tag_135:\n        /* \"#utility.yul\":2044:2065   */\n      tag_195\n        /* \"#utility.yul\":2059:2064   */\n      dup2\n        /* \"#utility.yul\":2044:2065   */\n      tag_134\n      jump\t// in\n    tag_195:\n        /* \"#utility.yul\":2039:2042   */\n      dup3\n        /* \"#utility.yul\":2032:2066   */\n      mstore\n        /* \"#utility.yul\":1963:2072   */\n      pop\n      pop\n      jump\t// out\n        /* \"#utility.yul\":2078:2288   */\n    tag_25:\n        /* \"#utility.yul\":2165:2169   */\n      0x00\n        /* \"#utility.yul\":2203:2205   */\n      0x20\n        /* \"#utility.yul\":2192:2201   */\n      dup3\n        /* \"#utility.yul\":2188:2206   */\n      add\n        /* \"#utility.yul\":2180:2206   */\n      swap1\n      pop\n        /* \"#utility.yul\":2216:2281   */\n      tag_197\n        /* \"#utility.yul\":2278:2279   */\n      0x00\n        /* \"#utility.yul\":2267:2276   */\n      dup4\n        /* \"#utility.yul\":2263:2280   */\n      add\n        /* \"#utility.yul\":2254:2260   */\n      dup5\n        /* \"#utility.yul\":2216:2281   */\n      tag_135\n      jump\t// in\n    tag_197:\n        /* \"#utility.yul\":2078:2288   */\n      swap3\n      swap2\n      pop\n      pop\n      jump\t// out\n        /* \"#utility.yul\":2294:2412   */\n    tag_136:\n        /* \"#utility.yul\":2381:2405   */\n      tag_199\n        /* \"#utility.yul\":2399:2404   */\n      dup2\n        /* \"#utility.yul\":2381:2405   */\n      tag_127\n      jump\t// in\n    tag_199:\n        /* \"#utility.yul\":2376:2379   */\n      dup3\n        /* \"#utility.yul\":2369:2406   */\n      mstore\n        /* \"#utility.yul\":2294:2412   */\n      pop\n      pop\n      jump\t// out\n        /* \"#utility.yul\":2418:2640   */\n    tag_30:\n        /* \"#utility.yul\":2511:2515   */\n      0x00\n        /* \"#utility.yul\":2549:2551   */\n      0x20\n        /* \"#utility.yul\":2538:2547   */\n      dup3\n        /* \"#utility.yul\":2534:2552   */\n      add\n        /* \"#utility.yul\":2526:2552   */\n      swap1\n      pop\n        /* \"#utility.yul\":2562:2633   */\n      tag_201\n        /* \"#utility.yul\":2630:2631   */\n      0x00\n        /* \"#utility.yul\":2619:2628   */\n      dup4\n        /* \"#utility.yul\":2615:2632   */\n      add\n        /* \"#utility.yul\":2606:2612   */\n      dup5\n        /* \"#utility.yul\":2562:2633   */\n      tag_136\n      jump\t// in\n    tag_201:\n        /* \"#utility.yul\":2418:2640   */\n      swap3\n      swap2\n      pop\n      pop\n      jump\t// out\n        /* \"#utility.yul\":2646:2764   */\n    tag_137:\n        /* \"#utility.yul\":2733:2757   */\n      tag_203\n        /* \"#utility.yul\":2751:2756   */\n      dup2\n        /* \"#utility.yul\":2733:2757   */\n      tag_131\n      jump\t// in\n    tag_203:\n        /* \"#utility.yul\":2728:2731   */\n      dup3\n        /* \"#utility.yul\":2721:2758   */\n      mstore\n        /* \"#utility.yul\":2646:2764   */\n      pop\n      pop\n      jump\t// out\n        /* \"#utility.yul\":2770:3434   */\n    tag_35:\n        /* \"#utility.yul\":2975:2979   */\n      0x00\n        /* \"#utility.yul\":3013:3016   */\n      0xa0\n        /* \"#utility.yul\":3002:3011   */\n      dup3\n        /* \"#utility.yul\":2998:3017   */\n      add\n        /* \"#utility.yul\":2990:3017   */\n      swap1\n      pop\n        /* \"#utility.yul\":3027:3098   */\n      tag_205\n        /* \"#utility.yul\":3095:3096   */\n      0x00\n        /* \"#utility.yul\":3084:3093   */\n      dup4\n        /* \"#utility.yul\":3080:3097   */\n      add\n        /* \"#utility.yul\":3071:3077   */\n      dup9\n        /* \"#utility.yul\":3027:3098   */\n      tag_136\n      jump\t// in\n    tag_205:\n        /* \"#utility.yul\":3108:3180   */\n      tag_206\n        /* \"#utility.yul\":3176:3178   */\n      0x20\n        /* \"#utility.yul\":3165:3174   */\n      dup4\n        /* \"#utility.yul\":3161:3179   */\n      add\n        /* \"#utility.yul\":3152:3158   */\n      dup8\n        /* \"#utility.yul\":3108:3180   */\n      tag_136\n      jump\t// in\n    tag_206:\n        /* \"#utility.yul\":3190:3262   */\n      tag_207\n        /* \"#utility.yul\":3258:3260   */\n      0x40\n        /* \"#utility.yul\":3247:3256   */\n      dup4\n        /* \"#utility.yul\":3243:3261   */\n      add\n        /* \"#utility.yul\":3234:3240   */\n      dup7\n        /* \"#utility.yul\":3190:3262   */\n      tag_136\n      jump\t// in\n    tag_207:\n        /* \"#utility.yul\":3272:3344   */\n      tag_208\n        /* \"#utility.yul\":3340:3342   */\n      0x60\n        /* \"#utility.yul\":3329:3338   */\n      dup4\n        /* \"#utility.yul\":3325:3343   */\n      add\n        /* \"#utility.yul\":3316:3322   */\n      dup6\n        /* \"#utility.yul\":3272:3344   */\n      tag_136\n      jump\t// in\n    tag_208:\n        /* \"#utility.yul\":3354:3427   */\n      tag_209\n        /* \"#utility.yul\":3422:3425   */\n      0x80\n        /* \"#utility.yul\":3411:3420   */\n      dup4\n        /* \"#utility.yul\":3407:3426   */\n      add\n        /* \"#utility.yul\":3398:3404   */\n      dup5\n        /* \"#utility.yul\":3354:3427   */\n      tag_137\n      jump\t// in\n    tag_209:\n        /* \"#utility.yul\":2770:3434   */\n      swap7\n      swap6\n      pop\n      pop\n      pop\n      pop\n      pop\n      pop\n      jump\t// out\n        /* \"#utility.yul\":3440:3662   */\n    tag_40:\n        /* \"#utility.yul\":3533:3537   */\n      0x00\n        /* \"#utility.yul\":3571:3573   */\n      0x20\n        /* \"#utility.yul\":3560:3569   */\n      dup3\n        /* \"#utility.yul\":3556:3574   */\n      add\n        /* \"#utility.yul\":3548:3574   */\n      swap1\n      pop\n        /* \"#utility.yul\":3584:3655   */\n      tag_211\n        /* \"#utility.yul\":3652:3653   */\n      0x00\n        /* \"#utility.yul\":3641:3650   */\n      dup4\n        /* \"#utility.yul\":3637:3654   */\n      add\n        /* \"#utility.yul\":3628:3634   */\n      dup5\n        /* \"#utility.yul\":3584:3655   */\n      tag_137\n      jump\t// in\n    tag_211:\n        /* \"#utility.yul\":3440:3662   */\n      swap3\n      swap2\n      pop\n      pop\n      jump\t// out\n        /* \"#utility.yul\":3668:3767   */\n    tag_138:\n        /* \"#utility.yul\":3720:3726   */\n      0x00\n        /* \"#utility.yul\":3754:3759   */\n      dup2\n        /* \"#utility.yul\":3748:3760   */\n      mload\n        /* \"#utility.yul\":3738:3760   */\n      swap1\n      pop\n        /* \"#utility.yul\":3668:3767   */\n      swap2\n      swap1\n      pop\n      jump\t// out\n        /* \"#utility.yul\":3773:3942   */\n    tag_139:\n        /* \"#utility.yul\":3857:3868   */\n      0x00\n        /* \"#utility.yul\":3891:3897   */\n      dup3\n        /* \"#utility.yul\":3886:3889   */\n      dup3\n        /* \"#utility.yul\":3879:3898   */\n      mstore\n        /* \"#utility.yul\":3931:3935   */\n      0x20\n        /* \"#utility.yul\":3926:3929   */\n      dup3\n        /* \"#utility.yul\":3922:3936   */\n      add\n        /* \"#utility.yul\":3907:3936   */\n      swap1\n      pop\n        /* \"#utility.yul\":3773:3942   */\n      swap3\n      swap2\n      pop\n      pop\n      jump\t// out\n        /* \"#utility.yul\":3948:4255   */\n    tag_140:\n        /* \"#utility.yul\":4016:4017   */\n      0x00\n        /* \"#utility.yul\":4026:4139   */\n    tag_215:\n        /* \"#utility.yul\":4040:4046   */\n      dup4\n        /* \"#utility.yul\":4037:4038   */\n      dup2\n        /* \"#utility.yul\":4034:4047   */\n      lt\n        /* \"#utility.yul\":4026:4139   */\n      iszero\n      tag_217\n      jumpi\n        /* \"#utility.yul\":4125:4126   */\n      dup1\n        /* \"#utility.yul\":4120:4123   */\n      dup3\n        /* \"#utility.yul\":4116:4127   */\n      add\n        /* \"#utility.yul\":4110:4128   */\n      mload\n        /* \"#utility.yul\":4106:4107   */\n      dup2\n        /* \"#utility.yul\":4101:4104   */\n      dup5\n        /* \"#utility.yul\":4097:4108   */\n      add\n        /* \"#utility.yul\":4090:4129   */\n      mstore\n        /* \"#utility.yul\":4062:4064   */\n      0x20\n        /* \"#utility.yul\":4059:4060   */\n      dup2\n        /* \"#utility.yul\":4055:4065   */\n      add\n        /* \"#utility.yul\":4050:4065   */\n      swap1\n      pop\n        /* \"#utility.yul\":4026:4139   */\n      jump(tag_215)\n    tag_217:\n        /* \"#utility.yul\":4157:4163   */\n      dup4\n        /* \"#utility.yul\":4154:4155   */\n      dup2\n        /* \"#utility.yul\":4151:4164   */\n      gt\n        /* \"#utility.yul\":4148:4249   */\n      iszero\n      tag_218\n      jumpi\n        /* \"#utility.yul\":4237:4238   */\n      0x00\n        /* \"#utility.yul\":4228:4234   */\n      dup5\n        /* \"#utility.yul\":4223:4226   */\n      dup5\n        /* \"#utility.yul\":4219:4235   */\n      add\n        /* \"#utility.yul\":4212:4239   */\n      mstore\n        /* \"#utility.yul\":4148:4249   */\n    tag_218:\n        /* \"#utility.yul\":3997:4255   */\n      pop\n        /* \"#utility.yul\":3948:4255   */\n      pop\n      pop\n      pop\n      jump\t// out\n        /* \"#utility.yul\":4261:4363   */\n    tag_141:\n        /* \"#utility.yul\":4302:4308   */\n      0x00\n        /* \"#utility.yul\":4353:4355   */\n      0x1f\n        /* \"#utility.yul\":4349:4356   */\n      not\n        /* \"#utility.yul\":4344:4346   */\n      0x1f\n        /* \"#utility.yul\":4337:4342   */\n      dup4\n        /* \"#utility.yul\":4333:4347   */\n      add\n        /* \"#utility.yul\":4329:4357   */\n      and\n        /* \"#utility.yul\":4319:4357   */\n      swap1\n      pop\n        /* \"#utility.yul\":4261:4363   */\n      swap2\n      swap1\n      pop\n      jump\t// out\n        /* \"#utility.yul\":4369:4733   */\n    tag_142:\n        /* \"#utility.yul\":4457:4460   */\n      0x00\n        /* \"#utility.yul\":4485:4524   */\n      tag_221\n        /* \"#utility.yul\":4518:4523   */\n      dup3\n        /* \"#utility.yul\":4485:4524   */\n      tag_138\n      jump\t// in\n    tag_221:\n        /* \"#utility.yul\":4540:4611   */\n      tag_222\n        /* \"#utility.yul\":4604:4610   */\n      dup2\n        /* \"#utility.yul\":4599:4602   */\n      dup6\n        /* \"#utility.yul\":4540:4611   */\n      tag_139\n      jump\t// in\n    tag_222:\n        /* \"#utility.yul\":4533:4611   */\n      swap4\n      pop\n        /* \"#utility.yul\":4620:4672   */\n      tag_223\n        /* \"#utility.yul\":4665:4671   */\n      dup2\n        /* \"#utility.yul\":4660:4663   */\n      dup6\n        /* \"#utility.yul\":4653:4657   */\n      0x20\n        /* \"#utility.yul\":4646:4651   */\n      dup7\n        /* \"#utility.yul\":4642:4658   */\n      add\n        /* \"#utility.yul\":4620:4672   */\n      tag_140\n      jump\t// in\n    tag_223:\n        /* \"#utility.yul\":4697:4726   */\n      tag_224\n        /* \"#utility.yul\":4719:4725   */\n      dup2\n        /* \"#utility.yul\":4697:4726   */\n      tag_141\n      jump\t// in\n    tag_224:\n        /* \"#utility.yul\":4692:4695   */\n      dup5\n        /* \"#utility.yul\":4688:4727   */\n      add\n        /* \"#utility.yul\":4681:4727   */\n      swap2\n      pop\n        /* \"#utility.yul\":4461:4733   */\n      pop\n        /* \"#utility.yul\":4369:4733   */\n      swap3\n      swap2\n      pop\n      pop\n      jump\t// out\n        /* \"#utility.yul\":4739:5482   */\n    tag_46:\n        /* \"#utility.yul\":4958:4962   */\n      0x00\n        /* \"#utility.yul\":4996:4999   */\n      0xa0\n        /* \"#utility.yul\":4985:4994   */\n      dup3\n        /* \"#utility.yul\":4981:5000   */\n      add\n        /* \"#utility.yul\":4973:5000   */\n      swap1\n      pop\n        /* \"#utility.yul\":5046:5055   */\n      dup2\n        /* \"#utility.yul\":5040:5044   */\n      dup2\n        /* \"#utility.yul\":5036:5056   */\n      sub\n        /* \"#utility.yul\":5032:5033   */\n      0x00\n        /* \"#utility.yul\":5021:5030   */\n      dup4\n        /* \"#utility.yul\":5017:5034   */\n      add\n        /* \"#utility.yul\":5010:5057   */\n      mstore\n        /* \"#utility.yul\":5074:5152   */\n      tag_226\n        /* \"#utility.yul\":5147:5151   */\n      dup2\n        /* \"#utility.yul\":5138:5144   */\n      dup9\n        /* \"#utility.yul\":5074:5152   */\n      tag_142\n      jump\t// in\n    tag_226:\n        /* \"#utility.yul\":5066:5152   */\n      swap1\n      pop\n        /* \"#utility.yul\":5162:5234   */\n      tag_227\n        /* \"#utility.yul\":5230:5232   */\n      0x20\n        /* \"#utility.yul\":5219:5228   */\n      dup4\n        /* \"#utility.yul\":5215:5233   */\n      add\n        /* \"#utility.yul\":5206:5212   */\n      dup8\n        /* \"#utility.yul\":5162:5234   */\n      tag_136\n      jump\t// in\n    tag_227:\n        /* \"#utility.yul\":5244:5310   */\n      tag_228\n        /* \"#utility.yul\":5306:5308   */\n      0x40\n        /* \"#utility.yul\":5295:5304   */\n      dup4\n        /* \"#utility.yul\":5291:5309   */\n      add\n        /* \"#utility.yul\":5282:5288   */\n      dup7\n        /* \"#utility.yul\":5244:5310   */\n      tag_135\n      jump\t// in\n    tag_228:\n        /* \"#utility.yul\":5320:5392   */\n      tag_229\n        /* \"#utility.yul\":5388:5390   */\n      0x60\n        /* \"#utility.yul\":5377:5386   */\n      dup4\n        /* \"#utility.yul\":5373:5391   */\n      add\n        /* \"#utility.yul\":5364:5370   */\n      dup6\n        /* \"#utility.yul\":5320:5392   */\n      tag_137\n      jump\t// in\n    tag_229:\n        /* \"#utility.yul\":5402:5475   */\n      tag_230\n        /* \"#utility.yul\":5470:5473   */\n      0x80\n        /* \"#utility.yul\":5459:5468   */\n      dup4\n        /* \"#utility.yul\":5455:5474   */\n      add\n        /* \"#utility.yul\":5446:5452   */\n      dup5\n        /* \"#utility.yul\":5402:5475   */\n      tag_136\n      jump\t// in\n    tag_230:\n        /* \"#utility.yul\":4739:5482   */\n      swap7\n      swap6\n      pop\n      pop\n      pop\n      pop\n      pop\n      pop\n      jump\t// out\n        /* \"#utility.yul\":5488:5605   */\n    tag_143:\n        /* \"#utility.yul\":5597:5598   */\n      0x00\n        /* \"#utility.yul\":5594:5595   */\n      dup1\n        /* \"#utility.yul\":5587:5599   */\n      revert\n        /* \"#utility.yul\":5611:5728   */\n    tag_144:\n        /* \"#utility.yul\":5720:5721   */\n      0x00\n        /* \"#utility.yul\":5717:5718   */\n      dup1\n        /* \"#utility.yul\":5710:5722   */\n      revert\n        /* \"#utility.yul\":5734:5914   */\n    tag_145:\n        /* \"#utility.yul\":5782:5859   */\n      0x4e487b7100000000000000000000000000000000000000000000000000000000\n        /* \"#utility.yul\":5779:5780   */\n      0x00\n        /* \"#utility.yul\":5772:5860   */\n      mstore\n        /* \"#utility.yul\":5879:5883   */\n      0x41\n        /* \"#utility.yul\":5876:5877   */\n      0x04\n        /* \"#utility.yul\":5869:5884   */\n      mstore\n        /* \"#utility.yul\":5903:5907   */\n      0x24\n        /* \"#utility.yul\":5900:5901   */\n      0x00\n        /* \"#utility.yul\":5893:5908   */\n      revert\n        /* \"#utility.yul\":5920:6201   */\n    tag_146:\n        /* \"#utility.yul\":6003:6030   */\n      tag_235\n        /* \"#utility.yul\":6025:6029   */\n      dup3\n        /* \"#utility.yul\":6003:6030   */\n      tag_141\n      jump\t// in\n    tag_235:\n        /* \"#utility.yul\":5995:6001   */\n      dup2\n        /* \"#utility.yul\":5991:6031   */\n      add\n        /* \"#utility.yul\":6133:6139   */\n      dup2\n        /* \"#utility.yul\":6121:6131   */\n      dup2\n        /* \"#utility.yul\":6118:6140   */\n      lt\n        /* \"#utility.yul\":6097:6115   */\n      0xffffffffffffffff\n        /* \"#utility.yul\":6085:6095   */\n      dup3\n        /* \"#utility.yul\":6082:6116   */\n      gt\n        /* \"#utility.yul\":6079:6141   */\n      or\n        /* \"#utility.yul\":6076:6164   */\n      iszero\n      tag_236\n      jumpi\n        /* \"#utility.yul\":6144:6162   */\n      tag_237\n      tag_145\n      jump\t// in\n    tag_237:\n        /* \"#utility.yul\":6076:6164   */\n    tag_236:\n        /* \"#utility.yul\":6184:6194   */\n      dup1\n        /* \"#utility.yul\":6180:6182   */\n      0x40\n        /* \"#utility.yul\":6173:6195   */\n      mstore\n        /* \"#utility.yul\":5963:6201   */\n      pop\n        /* \"#utility.yul\":5920:6201   */\n      pop\n      pop\n      jump\t// out\n        /* \"#utility.yul\":6207:6336   */\n    tag_147:\n        /* \"#utility.yul\":6241:6247   */\n      0x00\n        /* \"#utility.yul\":6268:6288   */\n      tag_239\n      tag_124\n      jump\t// in\n    tag_239:\n        /* \"#utility.yul\":6258:6288   */\n      swap1\n      pop\n        /* \"#utility.yul\":6297:6330   */\n      tag_240\n        /* \"#utility.yul\":6325:6329   */\n      dup3\n        /* \"#utility.yul\":6317:6323   */\n      dup3\n        /* \"#utility.yul\":6297:6330   */\n      tag_146\n      jump\t// in\n    tag_240:\n        /* \"#utility.yul\":6207:6336   */\n      swap2\n      swap1\n      pop\n      jump\t// out\n        /* \"#utility.yul\":6342:6650   */\n    tag_148:\n        /* \"#utility.yul\":6404:6408   */\n      0x00\n        /* \"#utility.yul\":6494:6512   */\n      0xffffffffffffffff\n        /* \"#utility.yul\":6486:6492   */\n      dup3\n        /* \"#utility.yul\":6483:6513   */\n      gt\n        /* \"#utility.yul\":6480:6536   */\n      iszero\n      tag_242\n      jumpi\n        /* \"#utility.yul\":6516:6534   */\n      tag_243\n      tag_145\n      jump\t// in\n    tag_243:\n        /* \"#utility.yul\":6480:6536   */\n    tag_242:\n        /* \"#utility.yul\":6554:6583   */\n      tag_244\n        /* \"#utility.yul\":6576:6582   */\n      dup3\n        /* \"#utility.yul\":6554:6583   */\n      tag_141\n      jump\t// in\n    tag_244:\n        /* \"#utility.yul\":6546:6583   */\n      swap1\n      pop\n        /* \"#utility.yul\":6638:6642   */\n      0x20\n        /* \"#utility.yul\":6632:6636   */\n      dup2\n        /* \"#utility.yul\":6628:6643   */\n      add\n        /* \"#utility.yul\":6620:6643   */\n      swap1\n      pop\n        /* \"#utility.yul\":6342:6650   */\n      swap2\n      swap1\n      pop\n      jump\t// out\n        /* \"#utility.yul\":6656:6810   */\n    tag_149:\n        /* \"#utility.yul\":6740:6746   */\n      dup3\n        /* \"#utility.yul\":6735:6738   */\n      dup2\n        /* \"#utility.yul\":6730:6733   */\n      dup4\n        /* \"#utility.yul\":6717:6747   */\n      calldatacopy\n        /* \"#utility.yul\":6802:6803   */\n      0x00\n        /* \"#utility.yul\":6793:6799   */\n      dup4\n        /* \"#utility.yul\":6788:6791   */\n      dup4\n        /* \"#utility.yul\":6784:6800   */\n      add\n        /* \"#utility.yul\":6777:6804   */\n      mstore\n        /* \"#utility.yul\":6656:6810   */\n      pop\n      pop\n      pop\n      jump\t// out\n        /* \"#utility.yul\":6816:7228   */\n    tag_150:\n        /* \"#utility.yul\":6894:6899   */\n      0x00\n        /* \"#utility.yul\":6919:6985   */\n      tag_247\n        /* \"#utility.yul\":6935:6984   */\n      tag_248\n        /* \"#utility.yul\":6977:6983   */\n      dup5\n        /* \"#utility.yul\":6935:6984   */\n      tag_148\n      jump\t// in\n    tag_248:\n        /* \"#utility.yul\":6919:6985   */\n      tag_147\n      jump\t// in\n    tag_247:\n        /* \"#utility.yul\":6910:6985   */\n      swap1\n      pop\n        /* \"#utility.yul\":7008:7014   */\n      dup3\n        /* \"#utility.yul\":7001:7006   */\n      dup2\n        /* \"#utility.yul\":6994:7015   */\n      mstore\n        /* \"#utility.yul\":7046:7050   */\n      0x20\n        /* \"#utility.yul\":7039:7044   */\n      dup2\n        /* \"#utility.yul\":7035:7051   */\n      add\n        /* \"#utility.yul\":7084:7087   */\n      dup5\n        /* \"#utility.yul\":7075:7081   */\n      dup5\n        /* \"#utility.yul\":7070:7073   */\n      dup5\n        /* \"#utility.yul\":7066:7082   */\n      add\n        /* \"#utility.yul\":7063:7088   */\n      gt\n        /* \"#utility.yul\":7060:7172   */\n      iszero\n      tag_249\n      jumpi\n        /* \"#utility.yul\":7091:7170   */\n      tag_250\n      tag_144\n      jump\t// in\n    tag_250:\n        /* \"#utility.yul\":7060:7172   */\n    tag_249:\n        /* \"#utility.yul\":7181:7222   */\n      tag_251\n        /* \"#utility.yul\":7215:7221   */\n      dup5\n        /* \"#utility.yul\":7210:7213   */\n      dup3\n        /* \"#utility.yul\":7205:7208   */\n      dup6\n        /* \"#utility.yul\":7181:7222   */\n      tag_149\n      jump\t// in\n    tag_251:\n        /* \"#utility.yul\":6900:7228   */\n      pop\n        /* \"#utility.yul\":6816:7228   */\n      swap4\n      swap3\n      pop\n      pop\n      pop\n      jump\t// out\n        /* \"#utility.yul\":7248:7588   */\n    tag_151:\n        /* \"#utility.yul\":7304:7309   */\n      0x00\n        /* \"#utility.yul\":7353:7356   */\n      dup3\n        /* \"#utility.yul\":7346:7350   */\n      0x1f\n        /* \"#utility.yul\":7338:7344   */\n      dup4\n        /* \"#utility.yul\":7334:7351   */\n      add\n        /* \"#utility.yul\":7330:7357   */\n      slt\n        /* \"#utility.yul\":7320:7442   */\n      tag_253\n      jumpi\n        /* \"#utility.yul\":7361:7440   */\n      tag_254\n      tag_143\n      jump\t// in\n    tag_254:\n        /* \"#utility.yul\":7320:7442   */\n    tag_253:\n        /* \"#utility.yul\":7478:7484   */\n      dup2\n        /* \"#utility.yul\":7465:7485   */\n      calldataload\n        /* \"#utility.yul\":7503:7582   */\n      tag_255\n        /* \"#utility.yul\":7578:7581   */\n      dup5\n        /* \"#utility.yul\":7570:7576   */\n      dup3\n        /* \"#utility.yul\":7563:7567   */\n      0x20\n        /* \"#utility.yul\":7555:7561   */\n      dup7\n        /* \"#utility.yul\":7551:7568   */\n      add\n        /* \"#utility.yul\":7503:7582   */\n      tag_150\n      jump\t// in\n    tag_255:\n        /* \"#utility.yul\":7494:7582   */\n      swap2\n      pop\n        /* \"#utility.yul\":7310:7588   */\n      pop\n        /* \"#utility.yul\":7248:7588   */\n      swap3\n      swap2\n      pop\n      pop\n      jump\t// out\n        /* \"#utility.yul\":7594:8393   */\n    tag_54:\n        /* \"#utility.yul\":7681:7687   */\n      0x00\n        /* \"#utility.yul\":7689:7695   */\n      dup1\n        /* \"#utility.yul\":7697:7703   */\n      0x00\n        /* \"#utility.yul\":7746:7748   */\n      0x60\n        /* \"#utility.yul\":7734:7743   */\n      dup5\n        /* \"#utility.yul\":7725:7732   */\n      dup7\n        /* \"#utility.yul\":7721:7744   */\n      sub\n        /* \"#utility.yul\":7717:7749   */\n      slt\n        /* \"#utility.yul\":7714:7833   */\n      iszero\n      tag_257\n      jumpi\n        /* \"#utility.yul\":7752:7831   */\n      tag_258\n      tag_125\n      jump\t// in\n    tag_258:\n        /* \"#utility.yul\":7714:7833   */\n    tag_257:\n        /* \"#utility.yul\":7900:7901   */\n      0x00\n        /* \"#utility.yul\":7889:7898   */\n      dup5\n        /* \"#utility.yul\":7885:7902   */\n      add\n        /* \"#utility.yul\":7872:7903   */\n      calldataload\n        /* \"#utility.yul\":7930:7948   */\n      0xffffffffffffffff\n        /* \"#utility.yul\":7922:7928   */\n      dup2\n        /* \"#utility.yul\":7919:7949   */\n      gt\n        /* \"#utility.yul\":7916:8033   */\n      iszero\n      tag_259\n      jumpi\n        /* \"#utility.yul\":7952:8031   */\n      tag_260\n      tag_126\n      jump\t// in\n    tag_260:\n        /* \"#utility.yul\":7916:8033   */\n    tag_259:\n        /* \"#utility.yul\":8057:8120   */\n      tag_261\n        /* \"#utility.yul\":8112:8119   */\n      dup7\n        /* \"#utility.yul\":8103:8109   */\n      dup3\n        /* \"#utility.yul\":8092:8101   */\n      dup8\n        /* \"#utility.yul\":8088:8110   */\n      add\n        /* \"#utility.yul\":8057:8120   */\n      tag_151\n      jump\t// in\n    tag_261:\n        /* \"#utility.yul\":8047:8120   */\n      swap4\n      pop\n        /* \"#utility.yul\":7843:8130   */\n      pop\n        /* \"#utility.yul\":8169:8171   */\n      0x20\n        /* \"#utility.yul\":8195:8248   */\n      tag_262\n        /* \"#utility.yul\":8240:8247   */\n      dup7\n        /* \"#utility.yul\":8231:8237   */\n      dup3\n        /* \"#utility.yul\":8220:8229   */\n      dup8\n        /* \"#utility.yul\":8216:8238   */\n      add\n        /* \"#utility.yul\":8195:8248   */\n      tag_129\n      jump\t// in\n    tag_262:\n        /* \"#utility.yul\":8185:8248   */\n      swap3\n      pop\n        /* \"#utility.yul\":8140:8258   */\n      pop\n        /* \"#utility.yul\":8297:8299   */\n      0x40\n        /* \"#utility.yul\":8323:8376   */\n      tag_263\n        /* \"#utility.yul\":8368:8375   */\n      dup7\n        /* \"#utility.yul\":8359:8365   */\n      dup3\n        /* \"#utility.yul\":8348:8357   */\n      dup8\n        /* \"#utility.yul\":8344:8366   */\n      add\n        /* \"#utility.yul\":8323:8376   */\n      tag_133\n      jump\t// in\n    tag_263:\n        /* \"#utility.yul\":8313:8376   */\n      swap2\n      pop\n        /* \"#utility.yul\":8268:8386   */\n      pop\n        /* \"#utility.yul\":7594:8393   */\n      swap3\n      pop\n      swap3\n      pop\n      swap3\n      jump\t// out\n        /* \"#utility.yul\":8399:8569   */\n    tag_152:\n        /* \"#utility.yul\":8539:8561   */\n      0x596f75206e65656420746f2062652061646d696e000000000000000000000000\n        /* \"#utility.yul\":8535:8536   */\n      0x00\n        /* \"#utility.yul\":8527:8533   */\n      dup3\n        /* \"#utility.yul\":8523:8537   */\n      add\n        /* \"#utility.yul\":8516:8562   */\n      mstore\n        /* \"#utility.yul\":8399:8569   */\n      pop\n      jump\t// out\n        /* \"#utility.yul\":8575:8941   */\n    tag_153:\n        /* \"#utility.yul\":8717:8720   */\n      0x00\n        /* \"#utility.yul\":8738:8805   */\n      tag_266\n        /* \"#utility.yul\":8802:8804   */\n      0x14\n        /* \"#utility.yul\":8797:8800   */\n      dup4\n        /* \"#utility.yul\":8738:8805   */\n      tag_139\n      jump\t// in\n    tag_266:\n        /* \"#utility.yul\":8731:8805   */\n      swap2\n      pop\n        /* \"#utility.yul\":8814:8907   */\n      tag_267\n        /* \"#utility.yul\":8903:8906   */\n      dup3\n        /* \"#utility.yul\":8814:8907   */\n      tag_152\n      jump\t// in\n    tag_267:\n        /* \"#utility.yul\":8932:8934   */\n      0x20\n        /* \"#utility.yul\":8927:8930   */\n      dup3\n        /* \"#utility.yul\":8923:8935   */\n      add\n        /* \"#utility.yul\":8916:8935   */\n      swap1\n      pop\n        /* \"#utility.yul\":8575:8941   */\n      swap2\n      swap1\n      pop\n      jump\t// out\n        /* \"#utility.yul\":8947:9366   */\n    tag_73:\n        /* \"#utility.yul\":9113:9117   */\n      0x00\n        /* \"#utility.yul\":9151:9153   */\n      0x20\n        /* \"#utility.yul\":9140:9149   */\n      dup3\n        /* \"#utility.yul\":9136:9154   */\n      add\n        /* \"#utility.yul\":9128:9154   */\n      swap1\n      pop\n        /* \"#utility.yul\":9200:9209   */\n      dup2\n        /* \"#utility.yul\":9194:9198   */\n      dup2\n        /* \"#utility.yul\":9190:9210   */\n      sub\n        /* \"#utility.yul\":9186:9187   */\n      0x00\n        /* \"#utility.yul\":9175:9184   */\n      dup4\n        /* \"#utility.yul\":9171:9188   */\n      add\n        /* \"#utility.yul\":9164:9211   */\n      mstore\n        /* \"#utility.yul\":9228:9359   */\n      tag_269\n        /* \"#utility.yul\":9354:9358   */\n      dup2\n        /* \"#utility.yul\":9228:9359   */\n      tag_153\n      jump\t// in\n    tag_269:\n        /* \"#utility.yul\":9220:9359   */\n      swap1\n      pop\n        /* \"#utility.yul\":8947:9366   */\n      swap2\n      swap1\n      pop\n      jump\t// out\n        /* \"#utility.yul\":9372:9552   */\n    tag_154:\n        /* \"#utility.yul\":9420:9497   */\n      0x4e487b7100000000000000000000000000000000000000000000000000000000\n        /* \"#utility.yul\":9417:9418   */\n      0x00\n        /* \"#utility.yul\":9410:9498   */\n      mstore\n        /* \"#utility.yul\":9517:9521   */\n      0x12\n        /* \"#utility.yul\":9514:9515   */\n      0x04\n        /* \"#utility.yul\":9507:9522   */\n      mstore\n        /* \"#utility.yul\":9541:9545   */\n      0x24\n        /* \"#utility.yul\":9538:9539   */\n      0x00\n        /* \"#utility.yul\":9531:9546   */\n      revert\n        /* \"#utility.yul\":9558:9738   */\n    tag_155:\n        /* \"#utility.yul\":9606:9683   */\n      0x4e487b7100000000000000000000000000000000000000000000000000000000\n        /* \"#utility.yul\":9603:9604   */\n      0x00\n        /* \"#utility.yul\":9596:9684   */\n      mstore\n        /* \"#utility.yul\":9703:9707   */\n      0x11\n        /* \"#utility.yul\":9700:9701   */\n      0x04\n        /* \"#utility.yul\":9693:9708   */\n      mstore\n        /* \"#utility.yul\":9727:9731   */\n      0x24\n        /* \"#utility.yul\":9724:9725   */\n      0x00\n        /* \"#utility.yul\":9717:9732   */\n      revert\n        /* \"#utility.yul\":9744:9929   */\n    tag_76:\n        /* \"#utility.yul\":9784:9785   */\n      0x00\n        /* \"#utility.yul\":9801:9821   */\n      tag_273\n        /* \"#utility.yul\":9819:9820   */\n      dup3\n        /* \"#utility.yul\":9801:9821   */\n      tag_127\n      jump\t// in\n    tag_273:\n        /* \"#utility.yul\":9796:9821   */\n      swap2\n      pop\n        /* \"#utility.yul\":9835:9855   */\n      tag_274\n        /* \"#utility.yul\":9853:9854   */\n      dup4\n        /* \"#utility.yul\":9835:9855   */\n      tag_127\n      jump\t// in\n    tag_274:\n        /* \"#utility.yul\":9830:9855   */\n      swap3\n      pop\n        /* \"#utility.yul\":9874:9875   */\n      dup3\n        /* \"#utility.yul\":9864:9899   */\n      tag_275\n      jumpi\n        /* \"#utility.yul\":9879:9897   */\n      tag_276\n      tag_154\n      jump\t// in\n    tag_276:\n        /* \"#utility.yul\":9864:9899   */\n    tag_275:\n        /* \"#utility.yul\":9921:9922   */\n      dup3\n        /* \"#utility.yul\":9918:9919   */\n      dup3\n        /* \"#utility.yul\":9914:9923   */\n      div\n        /* \"#utility.yul\":9909:9923   */\n      swap1\n      pop\n        /* \"#utility.yul\":9744:9929   */\n      swap3\n      swap2\n      pop\n      pop\n      jump\t// out\n        /* \"#utility.yul\":9935:10156   */\n    tag_156:\n        /* \"#utility.yul\":10075:10109   */\n      0x596f752063616e27742066696e616c697a652074686520726571756573742079\n        /* \"#utility.yul\":10071:10072   */\n      0x00\n        /* \"#utility.yul\":10063:10069   */\n      dup3\n        /* \"#utility.yul\":10059:10073   */\n      add\n        /* \"#utility.yul\":10052:10110   */\n      mstore\n        /* \"#utility.yul\":10144:10148   */\n      0x6574000000000000000000000000000000000000000000000000000000000000\n        /* \"#utility.yul\":10139:10141   */\n      0x20\n        /* \"#utility.yul\":10131:10137   */\n      dup3\n        /* \"#utility.yul\":10127:10142   */\n      add\n        /* \"#utility.yul\":10120:10149   */\n      mstore\n        /* \"#utility.yul\":9935:10156   */\n      pop\n      jump\t// out\n        /* \"#utility.yul\":10162:10528   */\n    tag_157:\n        /* \"#utility.yul\":10304:10307   */\n      0x00\n        /* \"#utility.yul\":10325:10392   */\n      tag_279\n        /* \"#utility.yul\":10389:10391   */\n      0x22\n        /* \"#utility.yul\":10384:10387   */\n      dup4\n        /* \"#utility.yul\":10325:10392   */\n      tag_139\n      jump\t// in\n    tag_279:\n        /* \"#utility.yul\":10318:10392   */\n      swap2\n      pop\n        /* \"#utility.yul\":10401:10494   */\n      tag_280\n        /* \"#utility.yul\":10490:10493   */\n      dup3\n        /* \"#utility.yul\":10401:10494   */\n      tag_156\n      jump\t// in\n    tag_280:\n        /* \"#utility.yul\":10519:10521   */\n      0x40\n        /* \"#utility.yul\":10514:10517   */\n      dup3\n        /* \"#utility.yul\":10510:10522   */\n      add\n        /* \"#utility.yul\":10503:10522   */\n      swap1\n      pop\n        /* \"#utility.yul\":10162:10528   */\n      swap2\n      swap1\n      pop\n      jump\t// out\n        /* \"#utility.yul\":10534:10953   */\n    tag_79:\n        /* \"#utility.yul\":10700:10704   */\n      0x00\n        /* \"#utility.yul\":10738:10740   */\n      0x20\n        /* \"#utility.yul\":10727:10736   */\n      dup3\n        /* \"#utility.yul\":10723:10741   */\n      add\n        /* \"#utility.yul\":10715:10741   */\n      swap1\n      pop\n        /* \"#utility.yul\":10787:10796   */\n      dup2\n        /* \"#utility.yul\":10781:10785   */\n      dup2\n        /* \"#utility.yul\":10777:10797   */\n      sub\n        /* \"#utility.yul\":10773:10774   */\n      0x00\n        /* \"#utility.yul\":10762:10771   */\n      dup4\n        /* \"#utility.yul\":10758:10775   */\n      add\n        /* \"#utility.yul\":10751:10798   */\n      mstore\n        /* \"#utility.yul\":10815:10946   */\n      tag_282\n        /* \"#utility.yul\":10941:10945   */\n      dup2\n        /* \"#utility.yul\":10815:10946   */\n      tag_157\n      jump\t// in\n    tag_282:\n        /* \"#utility.yul\":10807:10946   */\n      swap1\n      pop\n        /* \"#utility.yul\":10534:10953   */\n      swap2\n      swap1\n      pop\n      jump\t// out\n        /* \"#utility.yul\":10959:11137   */\n    tag_158:\n        /* \"#utility.yul\":11099:11129   */\n      0x5265717565737420697320616c726561647920636f6d706c6574656400000000\n        /* \"#utility.yul\":11095:11096   */\n      0x00\n        /* \"#utility.yul\":11087:11093   */\n      dup3\n        /* \"#utility.yul\":11083:11097   */\n      add\n        /* \"#utility.yul\":11076:11130   */\n      mstore\n        /* \"#utility.yul\":10959:11137   */\n      pop\n      jump\t// out\n        /* \"#utility.yul\":11143:11509   */\n    tag_159:\n        /* \"#utility.yul\":11285:11288   */\n      0x00\n        /* \"#utility.yul\":11306:11373   */\n      tag_285\n        /* \"#utility.yul\":11370:11372   */\n      0x1c\n        /* \"#utility.yul\":11365:11368   */\n      dup4\n        /* \"#utility.yul\":11306:11373   */\n      tag_139\n      jump\t// in\n    tag_285:\n        /* \"#utility.yul\":11299:11373   */\n      swap2\n      pop\n        /* \"#utility.yul\":11382:11475   */\n      tag_286\n        /* \"#utility.yul\":11471:11474   */\n      dup3\n        /* \"#utility.yul\":11382:11475   */\n      tag_158\n      jump\t// in\n    tag_286:\n        /* \"#utility.yul\":11500:11502   */\n      0x20\n        /* \"#utility.yul\":11495:11498   */\n      dup3\n        /* \"#utility.yul\":11491:11503   */\n      add\n        /* \"#utility.yul\":11484:11503   */\n      swap1\n      pop\n        /* \"#utility.yul\":11143:11509   */\n      swap2\n      swap1\n      pop\n      jump\t// out\n        /* \"#utility.yul\":11515:11934   */\n    tag_82:\n        /* \"#utility.yul\":11681:11685   */\n      0x00\n        /* \"#utility.yul\":11719:11721   */\n      0x20\n        /* \"#utility.yul\":11708:11717   */\n      dup3\n        /* \"#utility.yul\":11704:11722   */\n      add\n        /* \"#utility.yul\":11696:11722   */\n      swap1\n      pop\n        /* \"#utility.yul\":11768:11777   */\n      dup2\n        /* \"#utility.yul\":11762:11766   */\n      dup2\n        /* \"#utility.yul\":11758:11778   */\n      sub\n        /* \"#utility.yul\":11754:11755   */\n      0x00\n        /* \"#utility.yul\":11743:11752   */\n      dup4\n        /* \"#utility.yul\":11739:11756   */\n      add\n        /* \"#utility.yul\":11732:11779   */\n      mstore\n        /* \"#utility.yul\":11796:11927   */\n      tag_288\n        /* \"#utility.yul\":11922:11926   */\n      dup2\n        /* \"#utility.yul\":11796:11927   */\n      tag_159\n      jump\t// in\n    tag_288:\n        /* \"#utility.yul\":11788:11927   */\n      swap1\n      pop\n        /* \"#utility.yul\":11515:11934   */\n      swap2\n      swap1\n      pop\n      jump\t// out\n        /* \"#utility.yul\":11940:12120   */\n    tag_160:\n        /* \"#utility.yul\":11988:12065   */\n      0x4e487b7100000000000000000000000000000000000000000000000000000000\n        /* \"#utility.yul\":11985:11986   */\n      0x00\n        /* \"#utility.yul\":11978:12066   */\n      mstore\n        /* \"#utility.yul\":12085:12089   */\n      0x22\n        /* \"#utility.yul\":12082:12083   */\n      0x04\n        /* \"#utility.yul\":12075:12090   */\n      mstore\n        /* \"#utility.yul\":12109:12113   */\n      0x24\n        /* \"#utility.yul\":12106:12107   */\n      0x00\n        /* \"#utility.yul\":12099:12114   */\n      revert\n        /* \"#utility.yul\":12126:12446   */\n    tag_88:\n        /* \"#utility.yul\":12170:12176   */\n      0x00\n        /* \"#utility.yul\":12207:12208   */\n      0x02\n        /* \"#utility.yul\":12201:12205   */\n      dup3\n        /* \"#utility.yul\":12197:12209   */\n      div\n        /* \"#utility.yul\":12187:12209   */\n      swap1\n      pop\n        /* \"#utility.yul\":12254:12255   */\n      0x01\n        /* \"#utility.yul\":12248:12252   */\n      dup3\n        /* \"#utility.yul\":12244:12256   */\n      and\n        /* \"#utility.yul\":12275:12293   */\n      dup1\n        /* \"#utility.yul\":12265:12346   */\n      tag_291\n      jumpi\n        /* \"#utility.yul\":12331:12335   */\n      0x7f\n        /* \"#utility.yul\":12323:12329   */\n      dup3\n        /* \"#utility.yul\":12319:12336   */\n      and\n        /* \"#utility.yul\":12309:12336   */\n      swap2\n      pop\n        /* \"#utility.yul\":12265:12346   */\n    tag_291:\n        /* \"#utility.yul\":12393:12395   */\n      0x20\n        /* \"#utility.yul\":12385:12391   */\n      dup3\n        /* \"#utility.yul\":12382:12396   */\n      lt\n        /* \"#utility.yul\":12362:12380   */\n      dup2\n        /* \"#utility.yul\":12359:12397   */\n      eq\n        /* \"#utility.yul\":12356:12440   */\n      iszero\n      tag_292\n      jumpi\n        /* \"#utility.yul\":12412:12430   */\n      tag_293\n      tag_160\n      jump\t// in\n    tag_293:\n        /* \"#utility.yul\":12356:12440   */\n    tag_292:\n        /* \"#utility.yul\":12177:12446   */\n      pop\n        /* \"#utility.yul\":12126:12446   */\n      swap2\n      swap1\n      pop\n      jump\t// out\n        /* \"#utility.yul\":12452:12685   */\n    tag_100:\n        /* \"#utility.yul\":12491:12494   */\n      0x00\n        /* \"#utility.yul\":12514:12538   */\n      tag_295\n        /* \"#utility.yul\":12532:12537   */\n      dup3\n        /* \"#utility.yul\":12514:12538   */\n      tag_127\n      jump\t// in\n    tag_295:\n        /* \"#utility.yul\":12505:12538   */\n      swap2\n      pop\n        /* \"#utility.yul\":12560:12626   */\n      0xffffffffffffffffffffffffffffffffffffffffffffffffffffffffffffffff\n        /* \"#utility.yul\":12553:12558   */\n      dup3\n        /* \"#utility.yul\":12550:12627   */\n      eq\n        /* \"#utility.yul\":12547:12650   */\n      iszero\n      tag_296\n      jumpi\n        /* \"#utility.yul\":12630:12648   */\n      tag_297\n      tag_155\n      jump\t// in\n    tag_297:\n        /* \"#utility.yul\":12547:12650   */\n    tag_296:\n        /* \"#utility.yul\":12677:12678   */\n      0x01\n        /* \"#utility.yul\":12670:12675   */\n      dup3\n        /* \"#utility.yul\":12666:12679   */\n      add\n        /* \"#utility.yul\":12659:12679   */\n      swap1\n      pop\n        /* \"#utility.yul\":12452:12685   */\n      swap2\n      swap1\n      pop\n      jump\t// out\n        /* \"#utility.yul\":12691:12917   */\n    tag_161:\n        /* \"#utility.yul\":12831:12865   */\n      0x43616e2774206265206c657373207468616e206d696e696d756d20636f6e7472\n        /* \"#utility.yul\":12827:12828   */\n      0x00\n        /* \"#utility.yul\":12819:12825   */\n      dup3\n        /* \"#utility.yul\":12815:12829   */\n      add\n        /* \"#utility.yul\":12808:12866   */\n      mstore\n        /* \"#utility.yul\":12900:12909   */\n      0x69627574696f6e00000000000000000000000000000000000000000000000000\n        /* \"#utility.yul\":12895:12897   */\n      0x20\n        /* \"#utility.yul\":12887:12893   */\n      dup3\n        /* \"#utility.yul\":12883:12898   */\n      add\n        /* \"#utility.yul\":12876:12910   */\n      mstore\n        /* \"#utility.yul\":12691:12917   */\n      pop\n      jump\t// out\n        /* \"#utility.yul\":12923:13289   */\n    tag_162:\n        /* \"#utility.yul\":13065:13068   */\n      0x00\n        /* \"#utility.yul\":13086:13153   */\n      tag_300\n        /* \"#utility.yul\":13150:13152   */\n      0x27\n        /* \"#utility.yul\":13145:13148   */\n      dup4\n        /* \"#utility.yul\":13086:13153   */\n      tag_139\n      jump\t// in\n    tag_300:\n        /* \"#utility.yul\":13079:13153   */\n      swap2\n      pop\n        /* \"#utility.yul\":13162:13255   */\n      tag_301\n        /* \"#utility.yul\":13251:13254   */\n      dup3\n        /* \"#utility.yul\":13162:13255   */\n      tag_161\n      jump\t// in\n    tag_301:\n        /* \"#utility.yul\":13280:13282   */\n      0x40\n        /* \"#utility.yul\":13275:13278   */\n      dup3\n        /* \"#utility.yul\":13271:13283   */\n      add\n        /* \"#utility.yul\":13264:13283   */\n      swap1\n      pop\n        /* \"#utility.yul\":12923:13289   */\n      swap2\n      swap1\n      pop\n      jump\t// out\n        /* \"#utility.yul\":13295:13714   */\n    tag_104:\n        /* \"#utility.yul\":13461:13465   */\n      0x00\n        /* \"#utility.yul\":13499:13501   */\n      0x20\n        /* \"#utility.yul\":13488:13497   */\n      dup3\n        /* \"#utility.yul\":13484:13502   */\n      add\n        /* \"#utility.yul\":13476:13502   */\n      swap1\n      pop\n        /* \"#utility.yul\":13548:13557   */\n      dup2\n        /* \"#utility.yul\":13542:13546   */\n      dup2\n        /* \"#utility.yul\":13538:13558   */\n      sub\n        /* \"#utility.yul\":13534:13535   */\n      0x00\n        /* \"#utility.yul\":13523:13532   */\n      dup4\n        /* \"#utility.yul\":13519:13536   */\n      add\n        /* \"#utility.yul\":13512:13559   */\n      mstore\n        /* \"#utility.yul\":13576:13707   */\n      tag_303\n        /* \"#utility.yul\":13702:13706   */\n      dup2\n        /* \"#utility.yul\":13576:13707   */\n      tag_162\n      jump\t// in\n    tag_303:\n        /* \"#utility.yul\":13568:13707   */\n      swap1\n      pop\n        /* \"#utility.yul\":13295:13714   */\n      swap2\n      swap1\n      pop\n      jump\t// out\n        /* \"#utility.yul\":13720:13897   */\n    tag_163:\n        /* \"#utility.yul\":13860:13889   */\n      0x596f75206e65656420746f206265206f6e6520617070726f7665720000000000\n        /* \"#utility.yul\":13856:13857   */\n      0x00\n        /* \"#utility.yul\":13848:13854   */\n      dup3\n        /* \"#utility.yul\":13844:13858   */\n      add\n        /* \"#utility.yul\":13837:13890   */\n      mstore\n        /* \"#utility.yul\":13720:13897   */\n      pop\n      jump\t// out\n        /* \"#utility.yul\":13903:14269   */\n    tag_164:\n        /* \"#utility.yul\":14045:14048   */\n      0x00\n        /* \"#utility.yul\":14066:14133   */\n      tag_306\n        /* \"#utility.yul\":14130:14132   */\n      0x1b\n        /* \"#utility.yul\":14125:14128   */\n      dup4\n        /* \"#utility.yul\":14066:14133   */\n      tag_139\n      jump\t// in\n    tag_306:\n        /* \"#utility.yul\":14059:14133   */\n      swap2\n      pop\n        /* \"#utility.yul\":14142:14235   */\n      tag_307\n        /* \"#utility.yul\":14231:14234   */\n      dup3\n        /* \"#utility.yul\":14142:14235   */\n      tag_163\n      jump\t// in\n    tag_307:\n        /* \"#utility.yul\":14260:14262   */\n      0x20\n        /* \"#utility.yul\":14255:14258   */\n      dup3\n        /* \"#utility.yul\":14251:14263   */\n      add\n        /* \"#utility.yul\":14244:14263   */\n      swap1\n      pop\n        /* \"#utility.yul\":13903:14269   */\n      swap2\n      swap1\n      pop\n      jump\t// out\n        /* \"#utility.yul\":14275:14694   */\n    tag_109:\n        /* \"#utility.yul\":14441:14445   */\n      0x00\n        /* \"#utility.yul\":14479:14481   */\n      0x20\n        /* \"#utility.yul\":14468:14477   */\n      dup3\n        /* \"#utility.yul\":14464:14482   */\n      add\n        /* \"#utility.yul\":14456:14482   */\n      swap1\n      pop\n        /* \"#utility.yul\":14528:14537   */\n      dup2\n        /* \"#utility.yul\":14522:14526   */\n      dup2\n        /* \"#utility.yul\":14518:14538   */\n      sub\n        /* \"#utility.yul\":14514:14515   */\n      0x00\n        /* \"#utility.yul\":14503:14512   */\n      dup4\n        /* \"#utility.yul\":14499:14516   */\n      add\n        /* \"#utility.yul\":14492:14539   */\n      mstore\n        /* \"#utility.yul\":14556:14687   */\n      tag_309\n        /* \"#utility.yul\":14682:14686   */\n      dup2\n        /* \"#utility.yul\":14556:14687   */\n      tag_164\n      jump\t// in\n    tag_309:\n        /* \"#utility.yul\":14548:14687   */\n      swap1\n      pop\n        /* \"#utility.yul\":14275:14694   */\n      swap2\n      swap1\n      pop\n      jump\t// out\n        /* \"#utility.yul\":14700:14873   */\n    tag_165:\n        /* \"#utility.yul\":14840:14865   */\n      0x596f752063616e277420617070726f766520616761696e000000000000000000\n        /* \"#utility.yul\":14836:14837   */\n      0x00\n        /* \"#utility.yul\":14828:14834   */\n      dup3\n        /* \"#utility.yul\":14824:14838   */\n      add\n        /* \"#utility.yul\":14817:14866   */\n      mstore\n        /* \"#utility.yul\":14700:14873   */\n      pop\n      jump\t// out\n        /* \"#utility.yul\":14879:15245   */\n    tag_166:\n        /* \"#utility.yul\":15021:15024   */\n      0x00\n        /* \"#utility.yul\":15042:15109   */\n      tag_312\n        /* \"#utility.yul\":15106:15108   */\n      0x17\n        /* \"#utility.yul\":15101:15104   */\n      dup4\n        /* \"#utility.yul\":15042:15109   */\n      tag_139\n      jump\t// in\n    tag_312:\n        /* \"#utility.yul\":15035:15109   */\n      swap2\n      pop\n        /* \"#utility.yul\":15118:15211   */\n      tag_313\n        /* \"#utility.yul\":15207:15210   */\n      dup3\n        /* \"#utility.yul\":15118:15211   */\n      tag_165\n      jump\t// in\n    tag_313:\n        /* \"#utility.yul\":15236:15238   */\n      0x20\n        /* \"#utility.yul\":15231:15234   */\n      dup3\n        /* \"#utility.yul\":15227:15239   */\n      add\n        /* \"#utility.yul\":15220:15239   */\n      swap1\n      pop\n        /* \"#utility.yul\":14879:15245   */\n      swap2\n      swap1\n      pop\n      jump\t// out\n        /* \"#utility.yul\":15251:15670   */\n    tag_112:\n        /* \"#utility.yul\":15417:15421   */\n      0x00\n        /* \"#utility.yul\":15455:15457   */\n      0x20\n        /* \"#utility.yul\":15444:15453   */\n      dup3\n        /* \"#utility.yul\":15440:15458   */\n      add\n        /* \"#utility.yul\":15432:15458   */\n      swap1\n      pop\n        /* \"#utility.yul\":15504:15513   */\n      dup2\n        /* \"#utility.yul\":15498:15502   */\n      dup2\n        /* \"#utility.yul\":15494:15514   */\n      sub\n        /* \"#utility.yul\":15490:15491   */\n      0x00\n        /* \"#utility.yul\":15479:15488   */\n      dup4\n        /* \"#utility.yul\":15475:15492   */\n      add\n        /* \"#utility.yul\":15468:15515   */\n      mstore\n        /* \"#utility.yul\":15532:15663   */\n      tag_315\n        /* \"#utility.yul\":15658:15662   */\n      dup2\n        /* \"#utility.yul\":15532:15663   */\n      tag_166\n      jump\t// in\n    tag_315:\n        /* \"#utility.yul\":15524:15663   */\n      swap1\n      pop\n        /* \"#utility.yul\":15251:15670   */\n      swap2\n      swap1\n      pop\n      jump\t// out\n\n    auxdata: 0xa2646970667358221220819d6a72c54ff5537886fcc3053b198a68b7f63d34e6f5c732e4dd8e508a602964736f6c634300080b0033\n}\n","bytecode":{"linkReferences":{},"object":"60806040523480156200001157600080fd5b50604051620014a7380380620014a783398181016040528101906200003791906200012c565b80600260006101000a81548173ffffffffffffffffffffffffffffffffffffffff021916908373ffffffffffffffffffffffffffffffffffffffff16021790555081600381905550505062000173565b600080fd5b6000819050919050565b620000a1816200008c565b8114620000ad57600080fd5b50565b600081519050620000c18162000096565b92915050565b600073ffffffffffffffffffffffffffffffffffffffff82169050919050565b6000620000f482620000c7565b9050919050565b6200010681620000e7565b81146200011257600080fd5b50565b6000815190506200012681620000fb565b92915050565b6000806040838503121562000146576200014562000087565b5b60006200015685828601620000b0565b9250506020620001698582860162000115565b9150509250929050565b61132480620001836000396000f3fe6080604052600436106100a75760003560e01c806382fde0931161006457806382fde093146101cb5780638a9cfd55146101f6578063937e09b11461021f5780639fb42b1f1461024a578063d7bb99ba14610275578063d7d1bbdb1461027f576100a7565b806303441006146100ac5780630a144391146100c85780633410452a146101055780634051ddac14610130578063481c6a751461015f57806381d12c581461018a575b600080fd5b6100c660048036038101906100c19190610ab5565b6102a8565b005b3480156100d457600080fd5b506100ef60048036038101906100ea9190610b40565b610484565b6040516100fc9190610b88565b60405180910390f35b34801561011157600080fd5b5061011a6104a4565b6040516101279190610bb2565b60405180910390f35b34801561013c57600080fd5b506101456104ae565b604051610156959493929190610bdc565b60405180910390f35b34801561016b57600080fd5b506101746104f4565b6040516101819190610c2f565b60405180910390f35b34801561019657600080fd5b506101b160048036038101906101ac9190610ab5565b61051a565b6040516101c2959493929190610ce3565b60405180910390f35b3480156101d757600080fd5b506101e0610605565b6040516101ed9190610bb2565b60405180910390f35b34801561020257600080fd5b5061021d60048036038101906102189190610e72565b61060b565b005b34801561022b57600080fd5b5061023461075d565b6040516102419190610bb2565b60405180910390f35b34801561025657600080fd5b5061025f610763565b60405161026c9190610bb2565b60405180910390f35b61027d610769565b005b34801561028b57600080fd5b506102a660048036038101906102a19190610ab5565b61081f565b005b600260009054906101000a900473ffffffffffffffffffffffffffffffffffffffff1673ffffffffffffffffffffffffffffffffffffffff163373ffffffffffffffffffffffffffffffffffffffff1614610338576040517f08c379a000000000000000000000000000000000000000000000000000000000815260040161032f90610f2d565b60405180910390fd5b60008060008381526020019081526020016000209050600260055461035d9190610fab565b8160030154116103a2576040517f08c379a00000000000000000000000000000000000000000000000000000000081526004016103999061104e565b60405180910390fd5b8060020160009054906101000a900460ff16156103f4576040517f08c379a00000000000000000000000000000000000000000000000000000000081526004016103eb906110ba565b60405180910390fd5b8060020160019054906101000a900473ffffffffffffffffffffffffffffffffffffffff1673ffffffffffffffffffffffffffffffffffffffff166108fc82600101549081150290604051600060405180830381858888f19350505050158015610462573d6000803e3d6000fd5b5060018160020160006101000a81548160ff0219169083151502179055505050565b60046020528060005260406000206000915054906101000a900460ff1681565b6000600154905090565b600080600080600060035447600154600554600260009054906101000a900473ffffffffffffffffffffffffffffffffffffffff16945094509450945094509091929394565b600260009054906101000a900473ffffffffffffffffffffffffffffffffffffffff1681565b600060205280600052604060002060009150905080600001805461053d90611109565b80601f016020809104026020016040519081016040528092919081815260200182805461056990611109565b80156105b65780601f1061058b576101008083540402835291602001916105b6565b820191906000526020600020905b81548152906001019060200180831161059957829003601f168201915b5050505050908060010154908060020160009054906101000a900460ff16908060020160019054906101000a900473ffffffffffffffffffffffffffffffffffffffff16908060030154905085565b60055481565b600260009054906101000a900473ffffffffffffffffffffffffffffffffffffffff1673ffffffffffffffffffffffffffffffffffffffff163373ffffffffffffffffffffffffffffffffffffffff161461069b576040517f08c379a000000000000000000000000000000000000000000000000000000000815260040161069290610f2d565b60405180910390fd5b600080600060015481526020019081526020016000209050838160000190805190602001906106cb9291906109c8565b50828160010181905550818160020160016101000a81548173ffffffffffffffffffffffffffffffffffffffff021916908373ffffffffffffffffffffffffffffffffffffffff16021790555060008160020160006101000a81548160ff02191690831515021790555060008160030181905550600160008154809291906107529061113b565b919050555050505050565b60035481565b60015481565b60035434116107ad576040517f08c379a00000000000000000000000000000000000000000000000000000000081526004016107a4906111f6565b60405180910390fd5b6001600460003373ffffffffffffffffffffffffffffffffffffffff1673ffffffffffffffffffffffffffffffffffffffff16815260200190815260200160002060006101000a81548160ff021916908315150217905550600560008154809291906108189061113b565b9190505550565b60008060008381526020019081526020016000209050600460003373ffffffffffffffffffffffffffffffffffffffff1673ffffffffffffffffffffffffffffffffffffffff16815260200190815260200160002060009054906101000a900460ff166108c1576040517f08c379a00000000000000000000000000000000000000000000000000000000081526004016108b890611262565b60405180910390fd5b8060040160003373ffffffffffffffffffffffffffffffffffffffff1673ffffffffffffffffffffffffffffffffffffffff16815260200190815260200160002060009054906101000a900460ff1615610950576040517f08c379a0000000000000000000000000000000000000000000000000000000008152600401610947906112ce565b60405180910390fd5b60018160040160003373ffffffffffffffffffffffffffffffffffffffff1673ffffffffffffffffffffffffffffffffffffffff16815260200190815260200160002060006101000a81548160ff0219169083151502179055508060030160008154809291906109bf9061113b565b91905055505050565b8280546109d490611109565b90600052602060002090601f0160209004810192826109f65760008555610a3d565b82601f10610a0f57805160ff1916838001178555610a3d565b82800160010185558215610a3d579182015b82811115610a3c578251825591602001919060010190610a21565b5b509050610a4a9190610a4e565b5090565b5b80821115610a67576000816000905550600101610a4f565b5090565b6000604051905090565b600080fd5b600080fd5b6000819050919050565b610a9281610a7f565b8114610a9d57600080fd5b50565b600081359050610aaf81610a89565b92915050565b600060208284031215610acb57610aca610a75565b5b6000610ad984828501610aa0565b91505092915050565b600073ffffffffffffffffffffffffffffffffffffffff82169050919050565b6000610b0d82610ae2565b9050919050565b610b1d81610b02565b8114610b2857600080fd5b50565b600081359050610b3a81610b14565b92915050565b600060208284031215610b5657610b55610a75565b5b6000610b6484828501610b2b565b91505092915050565b60008115159050919050565b610b8281610b6d565b82525050565b6000602082019050610b9d6000830184610b79565b92915050565b610bac81610a7f565b82525050565b6000602082019050610bc76000830184610ba3565b92915050565b610bd681610b02565b82525050565b600060a082019050610bf16000830188610ba3565b610bfe6020830187610ba3565b610c0b6040830186610ba3565b610c186060830185610ba3565b610c256080830184610bcd565b9695505050505050565b6000602082019050610c446000830184610bcd565b92915050565b600081519050919050565b600082825260208201905092915050565b60005b83811015610c84578082015181840152602081019050610c69565b83811115610c93576000848401525b50505050565b6000601f19601f8301169050919050565b6000610cb582610c4a565b610cbf8185610c55565b9350610ccf818560208601610c66565b610cd881610c99565b840191505092915050565b600060a0820190508181036000830152610cfd8188610caa565b9050610d0c6020830187610ba3565b610d196040830186610b79565b610d266060830185610bcd565b610d336080830184610ba3565b9695505050505050565b600080fd5b600080fd5b7f4e487b7100000000000000000000000000000000000000000000000000000000600052604160045260246000fd5b610d7f82610c99565b810181811067ffffffffffffffff82111715610d9e57610d9d610d47565b5b80604052505050565b6000610db1610a6b565b9050610dbd8282610d76565b919050565b600067ffffffffffffffff821115610ddd57610ddc610d47565b5b610de682610c99565b9050602081019050919050565b82818337600083830152505050565b6000610e15610e1084610dc2565b610da7565b905082815260208101848484011115610e3157610e30610d42565b5b610e3c848285610df3565b509392505050565b600082601f830112610e5957610e58610d3d565b5b8135610e69848260208601610e02565b91505092915050565b600080600060608486031215610e8b57610e8a610a75565b5b600084013567ffffffffffffffff811115610ea957610ea8610a7a565b5b610eb586828701610e44565b9350506020610ec686828701610aa0565b9250506040610ed786828701610b2b565b9150509250925092565b7f596f75206e65656420746f2062652061646d696e000000000000000000000000600082015250565b6000610f17601483610c55565b9150610f2282610ee1565b602082019050919050565b60006020820190508181036000830152610f4681610f0a565b9050919050565b7f4e487b7100000000000000000000000000000000000000000000000000000000600052601260045260246000fd5b7f4e487b7100000000000000000000000000000000000000000000000000000000600052601160045260246000fd5b6000610fb682610a7f565b9150610fc183610a7f565b925082610fd157610fd0610f4d565b5b828204905092915050565b7f596f752063616e27742066696e616c697a65207468652072657175657374207960008201527f6574000000000000000000000000000000000000000000000000000000000000602082015250565b6000611038602283610c55565b915061104382610fdc565b604082019050919050565b600060208201905081810360008301526110678161102b565b9050919050565b7f5265717565737420697320616c726561647920636f6d706c6574656400000000600082015250565b60006110a4601c83610c55565b91506110af8261106e565b602082019050919050565b600060208201905081810360008301526110d381611097565b9050919050565b7f4e487b7100000000000000000000000000000000000000000000000000000000600052602260045260246000fd5b6000600282049050600182168061112157607f821691505b60208210811415611135576111346110da565b5b50919050565b600061114682610a7f565b91507fffffffffffffffffffffffffffffffffffffffffffffffffffffffffffffffff82141561117957611178610f7c565b5b600182019050919050565b7f43616e2774206265206c657373207468616e206d696e696d756d20636f6e747260008201527f69627574696f6e00000000000000000000000000000000000000000000000000602082015250565b60006111e0602783610c55565b91506111eb82611184565b604082019050919050565b6000602082019050818103600083015261120f816111d3565b9050919050565b7f596f75206e65656420746f206265206f6e6520617070726f7665720000000000600082015250565b600061124c601b83610c55565b915061125782611216565b602082019050919050565b6000602082019050818103600083015261127b8161123f565b9050919050565b7f596f752063616e277420617070726f766520616761696e000000000000000000600082015250565b60006112b8601783610c55565b91506112c382611282565b602082019050919050565b600060208201905081810360008301526112e7816112ab565b905091905056fea2646970667358221220819d6a72c54ff5537886fcc3053b198a68b7f63d34e6f5c732e4dd8e508a602964736f6c634300080b0033","opcodes":"PUSH1 0x80 PUSH1 0x40 MSTORE CALLVALUE DUP1 ISZERO PUSH3 0x11 JUMPI PUSH1 0x0 DUP1 REVERT JUMPDEST POP PUSH1 0x40 MLOAD PUSH3 0x14A7 CODESIZE SUB DUP1 PUSH3 0x14A7 DUP4 CODECOPY DUP2 DUP2 ADD PUSH1 0x40 MSTORE DUP2 ADD SWAP1 PUSH3 0x37 SWAP2 SWAP1 PUSH3 0x12C JUMP JUMPDEST DUP1 PUSH1 0x2 PUSH1 0x0 PUSH2 0x100 EXP DUP2 SLOAD DUP2 PUSH20 0xFFFFFFFFFFFFFFFFFFFFFFFFFFFFFFFFFFFFFFFF MUL NOT AND SWAP1 DUP4 PUSH20 0xFFFFFFFFFFFFFFFFFFFFFFFFFFFFFFFFFFFFFFFF AND MUL OR SWAP1 SSTORE POP DUP2 PUSH1 0x3 DUP2 SWAP1 SSTORE POP POP POP PUSH3 0x173 JUMP JUMPDEST PUSH1 0x0 DUP1 REVERT JUMPDEST PUSH1 0x0 DUP2 SWAP1 POP SWAP2 SWAP1 POP JUMP JUMPDEST PUSH3 0xA1 DUP2 PUSH3 0x8C JUMP JUMPDEST DUP2 EQ PUSH3 0xAD JUMPI PUSH1 0x0 DUP1 REVERT JUMPDEST POP JUMP JUMPDEST PUSH1 0x0 DUP2 MLOAD SWAP1 POP PUSH3 0xC1 DUP2 PUSH3 0x96 JUMP JUMPDEST SWAP3 SWAP2 POP POP JUMP JUMPDEST PUSH1 0x0 PUSH20 0xFFFFFFFFFFFFFFFFFFFFFFFFFFFFFFFFFFFFFFFF DUP3 AND SWAP1 POP SWAP2 SWAP1 POP JUMP JUMPDEST PUSH1 0x0 PUSH3 0xF4 DUP3 PUSH3 0xC7 JUMP JUMPDEST SWAP1 POP SWAP2 SWAP1 POP JUMP JUMPDEST PUSH3 0x106 DUP2 PUSH3 0xE7 JUMP JUMPDEST DUP2 EQ PUSH3 0x112 JUMPI PUSH1 0x0 DUP1 REVERT JUMPDEST POP JUMP JUMPDEST PUSH1 0x0 DUP2 MLOAD SWAP1 POP PUSH3 0x126 DUP2 PUSH3 0xFB JUMP JUMPDEST SWAP3 SWAP2 POP POP JUMP JUMPDEST PUSH1 0x0 DUP1 PUSH1 0x40 DUP4 DUP6 SUB SLT ISZERO PUSH3 0x146 JUMPI PUSH3 0x145 PUSH3 0x87 JUMP JUMPDEST JUMPDEST PUSH1 0x0 PUSH3 0x156 DUP6 DUP3 DUP7 ADD PUSH3 0xB0 JUMP JUMPDEST SWAP3 POP POP PUSH1 0x20 PUSH3 0x169 DUP6 DUP3 DUP7 ADD PUSH3 0x115 JUMP JUMPDEST SWAP2 POP POP SWAP3 POP SWAP3 SWAP1 POP JUMP JUMPDEST PUSH2 0x1324 DUP1 PUSH3 0x183 PUSH1 0x0 CODECOPY PUSH1 0x0 RETURN INVALID PUSH1 0x80 PUSH1 0x40 MSTORE PUSH1 0x4 CALLDATASIZE LT PUSH2 0xA7 JUMPI PUSH1 0x0 CALLDATALOAD PUSH1 0xE0 SHR DUP1 PUSH4 0x82FDE093 GT PUSH2 0x64 JUMPI DUP1 PUSH4 0x82FDE093 EQ PUSH2 0x1CB JUMPI DUP1 PUSH4 0x8A9CFD55 EQ PUSH2 0x1F6 JUMPI DUP1 PUSH4 0x937E09B1 EQ PUSH2 0x21F JUMPI DUP1 PUSH4 0x9FB42B1F EQ PUSH2 0x24A JUMPI DUP1 PUSH4 0xD7BB99BA EQ PUSH2 0x275 JUMPI DUP1 PUSH4 0xD7D1BBDB EQ PUSH2 0x27F JUMPI PUSH2 0xA7 JUMP JUMPDEST DUP1 PUSH4 0x3441006 EQ PUSH2 0xAC JUMPI DUP1 PUSH4 0xA144391 EQ PUSH2 0xC8 JUMPI DUP1 PUSH4 0x3410452A EQ PUSH2 0x105 JUMPI DUP1 PUSH4 0x4051DDAC EQ PUSH2 0x130 JUMPI DUP1 PUSH4 0x481C6A75 EQ PUSH2 0x15F JUMPI DUP1 PUSH4 0x81D12C58 EQ PUSH2 0x18A JUMPI JUMPDEST PUSH1 0x0 DUP1 REVERT JUMPDEST PUSH2 0xC6 PUSH1 0x4 DUP1 CALLDATASIZE SUB DUP2 ADD SWAP1 PUSH2 0xC1 SWAP2 SWAP1 PUSH2 0xAB5 JUMP JUMPDEST PUSH2 0x2A8 JUMP JUMPDEST STOP JUMPDEST CALLVALUE DUP1 ISZERO PUSH2 0xD4 JUMPI PUSH1 0x0 DUP1 REVERT JUMPDEST POP PUSH2 0xEF PUSH1 0x4 DUP1 CALLDATASIZE SUB DUP2 ADD SWAP1 PUSH2 0xEA SWAP2 SWAP1 PUSH2 0xB40 JUMP JUMPDEST PUSH2 0x484 JUMP JUMPDEST PUSH1 0x40 MLOAD PUSH2 0xFC SWAP2 SWAP1 PUSH2 0xB88 JUMP JUMPDEST PUSH1 0x40 MLOAD DUP1 SWAP2 SUB SWAP1 RETURN JUMPDEST CALLVALUE DUP1 ISZERO PUSH2 0x111 JUMPI PUSH1 0x0 DUP1 REVERT JUMPDEST POP PUSH2 0x11A PUSH2 0x4A4 JUMP JUMPDEST PUSH1 0x40 MLOAD PUSH2 0x127 SWAP2 SWAP1 PUSH2 0xBB2 JUMP JUMPDEST PUSH1 0x40 MLOAD DUP1 SWAP2 SUB SWAP1 RETURN JUMPDEST CALLVALUE DUP1 ISZERO PUSH2 0x13C JUMPI PUSH1 0x0 DUP1 REVERT JUMPDEST POP PUSH2 0x145 PUSH2 0x4AE JUMP JUMPDEST PUSH1 0x40 MLOAD PUSH2 0x156 SWAP6 SWAP5 SWAP4 SWAP3 SWAP2 SWAP1 PUSH2 0xBDC JUMP JUMPDEST PUSH1 0x40 MLOAD DUP1 SWAP2 SUB SWAP1 RETURN JUMPDEST CALLVALUE DUP1 ISZERO PUSH2 0x16B JUMPI PUSH1 0x0 DUP1 REVERT JUMPDEST POP PUSH2 0x174 PUSH2 0x4F4 JUMP JUMPDEST PUSH1 0x40 MLOAD PUSH2 0x181 SWAP2 SWAP1 PUSH2 0xC2F JUMP JUMPDEST PUSH1 0x40 MLOAD DUP1 SWAP2 SUB SWAP1 RETURN JUMPDEST CALLVALUE DUP1 ISZERO PUSH2 0x196 JUMPI PUSH1 0x0 DUP1 REVERT JUMPDEST POP PUSH2 0x1B1 PUSH1 0x4 DUP1 CALLDATASIZE SUB DUP2 ADD SWAP1 PUSH2 0x1AC SWAP2 SWAP1 PUSH2 0xAB5 JUMP JUMPDEST PUSH2 0x51A JUMP JUMPDEST PUSH1 0x40 MLOAD PUSH2 0x1C2 SWAP6 SWAP5 SWAP4 SWAP3 SWAP2 SWAP1 PUSH2 0xCE3 JUMP JUMPDEST PUSH1 0x40 MLOAD DUP1 SWAP2 SUB SWAP1 RETURN JUMPDEST CALLVALUE DUP1 ISZERO PUSH2 0x1D7 JUMPI PUSH1 0x0 DUP1 REVERT JUMPDEST POP PUSH2 0x1E0 PUSH2 0x605 JUMP JUMPDEST PUSH1 0x40 MLOAD PUSH2 0x1ED SWAP2 SWAP1 PUSH2 0xBB2 JUMP JUMPDEST PUSH1 0x40 MLOAD DUP1 SWAP2 SUB SWAP1 RETURN JUMPDEST CALLVALUE DUP1 ISZERO PUSH2 0x202 JUMPI PUSH1 0x0 DUP1 REVERT JUMPDEST POP PUSH2 0x21D PUSH1 0x4 DUP1 CALLDATASIZE SUB DUP2 ADD SWAP1 PUSH2 0x218 SWAP2 SWAP1 PUSH2 0xE72 JUMP JUMPDEST PUSH2 0x60B JUMP JUMPDEST STOP JUMPDEST CALLVALUE DUP1 ISZERO PUSH2 0x22B JUMPI PUSH1 0x0 DUP1 REVERT JUMPDEST POP PUSH2 0x234 PUSH2 0x75D JUMP JUMPDEST PUSH1 0x40 MLOAD PUSH2 0x241 SWAP2 SWAP1 PUSH2 0xBB2 JUMP JUMPDEST PUSH1 0x40 MLOAD DUP1 SWAP2 SUB SWAP1 RETURN JUMPDEST CALLVALUE DUP1 ISZERO PUSH2 0x256 JUMPI PUSH1 0x0 DUP1 REVERT JUMPDEST POP PUSH2 0x25F PUSH2 0x763 JUMP JUMPDEST PUSH1 0x40 MLOAD PUSH2 0x26C SWAP2 SWAP1 PUSH2 0xBB2 JUMP JUMPDEST PUSH1 0x40 MLOAD DUP1 SWAP2 SUB SWAP1 RETURN JUMPDEST PUSH2 0x27D PUSH2 0x769 JUMP JUMPDEST STOP JUMPDEST CALLVALUE DUP1 ISZERO PUSH2 0x28B JUMPI PUSH1 0x0 DUP1 REVERT JUMPDEST POP PUSH2 0x2A6 PUSH1 0x4 DUP1 CALLDATASIZE SUB DUP2 ADD SWAP1 PUSH2 0x2A1 SWAP2 SWAP1 PUSH2 0xAB5 JUMP JUMPDEST PUSH2 0x81F JUMP JUMPDEST STOP JUMPDEST PUSH1 0x2 PUSH1 0x0 SWAP1 SLOAD SWAP1 PUSH2 0x100 EXP SWAP1 DIV PUSH20 0xFFFFFFFFFFFFFFFFFFFFFFFFFFFFFFFFFFFFFFFF AND PUSH20 0xFFFFFFFFFFFFFFFFFFFFFFFFFFFFFFFFFFFFFFFF AND CALLER PUSH20 0xFFFFFFFFFFFFFFFFFFFFFFFFFFFFFFFFFFFFFFFF AND EQ PUSH2 0x338 JUMPI PUSH1 0x40 MLOAD PUSH32 0x8C379A000000000000000000000000000000000000000000000000000000000 DUP2 MSTORE PUSH1 0x4 ADD PUSH2 0x32F SWAP1 PUSH2 0xF2D JUMP JUMPDEST PUSH1 0x40 MLOAD DUP1 SWAP2 SUB SWAP1 REVERT JUMPDEST PUSH1 0x0 DUP1 PUSH1 0x0 DUP4 DUP2 MSTORE PUSH1 0x20 ADD SWAP1 DUP2 MSTORE PUSH1 0x20 ADD PUSH1 0x0 KECCAK256 SWAP1 POP PUSH1 0x2 PUSH1 0x5 SLOAD PUSH2 0x35D SWAP2 SWAP1 PUSH2 0xFAB JUMP JUMPDEST DUP2 PUSH1 0x3 ADD SLOAD GT PUSH2 0x3A2 JUMPI PUSH1 0x40 MLOAD PUSH32 0x8C379A000000000000000000000000000000000000000000000000000000000 DUP2 MSTORE PUSH1 0x4 ADD PUSH2 0x399 SWAP1 PUSH2 0x104E JUMP JUMPDEST PUSH1 0x40 MLOAD DUP1 SWAP2 SUB SWAP1 REVERT JUMPDEST DUP1 PUSH1 0x2 ADD PUSH1 0x0 SWAP1 SLOAD SWAP1 PUSH2 0x100 EXP SWAP1 DIV PUSH1 0xFF AND ISZERO PUSH2 0x3F4 JUMPI PUSH1 0x40 MLOAD PUSH32 0x8C379A000000000000000000000000000000000000000000000000000000000 DUP2 MSTORE PUSH1 0x4 ADD PUSH2 0x3EB SWAP1 PUSH2 0x10BA JUMP JUMPDEST PUSH1 0x40 MLOAD DUP1 SWAP2 SUB SWAP1 REVERT JUMPDEST DUP1 PUSH1 0x2 ADD PUSH1 0x1 SWAP1 SLOAD SWAP1 PUSH2 0x100 EXP SWAP1 DIV PUSH20 0xFFFFFFFFFFFFFFFFFFFFFFFFFFFFFFFFFFFFFFFF AND PUSH20 0xFFFFFFFFFFFFFFFFFFFFFFFFFFFFFFFFFFFFFFFF AND PUSH2 0x8FC DUP3 PUSH1 0x1 ADD SLOAD SWAP1 DUP2 ISZERO MUL SWAP1 PUSH1 0x40 MLOAD PUSH1 0x0 PUSH1 0x40 MLOAD DUP1 DUP4 SUB DUP2 DUP6 DUP9 DUP9 CALL SWAP4 POP POP POP POP ISZERO DUP1 ISZERO PUSH2 0x462 JUMPI RETURNDATASIZE PUSH1 0x0 DUP1 RETURNDATACOPY RETURNDATASIZE PUSH1 0x0 REVERT JUMPDEST POP PUSH1 0x1 DUP2 PUSH1 0x2 ADD PUSH1 0x0 PUSH2 0x100 EXP DUP2 SLOAD DUP2 PUSH1 0xFF MUL NOT AND SWAP1 DUP4 ISZERO ISZERO MUL OR SWAP1 SSTORE POP POP POP JUMP JUMPDEST PUSH1 0x4 PUSH1 0x20 MSTORE DUP1 PUSH1 0x0 MSTORE PUSH1 0x40 PUSH1 0x0 KECCAK256 PUSH1 0x0 SWAP2 POP SLOAD SWAP1 PUSH2 0x100 EXP SWAP1 DIV PUSH1 0xFF AND DUP2 JUMP JUMPDEST PUSH1 0x0 PUSH1 0x1 SLOAD SWAP1 POP SWAP1 JUMP JUMPDEST PUSH1 0x0 DUP1 PUSH1 0x0 DUP1 PUSH1 0x0 PUSH1 0x3 SLOAD SELFBALANCE PUSH1 0x1 SLOAD PUSH1 0x5 SLOAD PUSH1 0x2 PUSH1 0x0 SWAP1 SLOAD SWAP1 PUSH2 0x100 EXP SWAP1 DIV PUSH20 0xFFFFFFFFFFFFFFFFFFFFFFFFFFFFFFFFFFFFFFFF AND SWAP5 POP SWAP5 POP SWAP5 POP SWAP5 POP SWAP5 POP SWAP1 SWAP2 SWAP3 SWAP4 SWAP5 JUMP JUMPDEST PUSH1 0x2 PUSH1 0x0 SWAP1 SLOAD SWAP1 PUSH2 0x100 EXP SWAP1 DIV PUSH20 0xFFFFFFFFFFFFFFFFFFFFFFFFFFFFFFFFFFFFFFFF AND DUP2 JUMP JUMPDEST PUSH1 0x0 PUSH1 0x20 MSTORE DUP1 PUSH1 0x0 MSTORE PUSH1 0x40 PUSH1 0x0 KECCAK256 PUSH1 0x0 SWAP2 POP SWAP1 POP DUP1 PUSH1 0x0 ADD DUP1 SLOAD PUSH2 0x53D SWAP1 PUSH2 0x1109 JUMP JUMPDEST DUP1 PUSH1 0x1F ADD PUSH1 0x20 DUP1 SWAP2 DIV MUL PUSH1 0x20 ADD PUSH1 0x40 MLOAD SWAP1 DUP2 ADD PUSH1 0x40 MSTORE DUP1 SWAP3 SWAP2 SWAP1 DUP2 DUP2 MSTORE PUSH1 0x20 ADD DUP3 DUP1 SLOAD PUSH2 0x569 SWAP1 PUSH2 0x1109 JUMP JUMPDEST DUP1 ISZERO PUSH2 0x5B6 JUMPI DUP1 PUSH1 0x1F LT PUSH2 0x58B JUMPI PUSH2 0x100 DUP1 DUP4 SLOAD DIV MUL DUP4 MSTORE SWAP2 PUSH1 0x20 ADD SWAP2 PUSH2 0x5B6 JUMP JUMPDEST DUP3 ADD SWAP2 SWAP1 PUSH1 0x0 MSTORE PUSH1 0x20 PUSH1 0x0 KECCAK256 SWAP1 JUMPDEST DUP2 SLOAD DUP2 MSTORE SWAP1 PUSH1 0x1 ADD SWAP1 PUSH1 0x20 ADD DUP1 DUP4 GT PUSH2 0x599 JUMPI DUP3 SWAP1 SUB PUSH1 0x1F AND DUP3 ADD SWAP2 JUMPDEST POP POP POP POP POP SWAP1 DUP1 PUSH1 0x1 ADD SLOAD SWAP1 DUP1 PUSH1 0x2 ADD PUSH1 0x0 SWAP1 SLOAD SWAP1 PUSH2 0x100 EXP SWAP1 DIV PUSH1 0xFF AND SWAP1 DUP1 PUSH1 0x2 ADD PUSH1 0x1 SWAP1 SLOAD SWAP1 PUSH2 0x100 EXP SWAP1 DIV PUSH20 0xFFFFFFFFFFFFFFFFFFFFFFFFFFFFFFFFFFFFFFFF AND SWAP1 DUP1 PUSH1 0x3 ADD SLOAD SWAP1 POP DUP6 JUMP JUMPDEST PUSH1 0x5 SLOAD DUP2 JUMP JUMPDEST PUSH1 0x2 PUSH1 0x0 SWAP1 SLOAD SWAP1 PUSH2 0x100 EXP SWAP1 DIV PUSH20 0xFFFFFFFFFFFFFFFFFFFFFFFFFFFFFFFFFFFFFFFF AND PUSH20 0xFFFFFFFFFFFFFFFFFFFFFFFFFFFFFFFFFFFFFFFF AND CALLER PUSH20 0xFFFFFFFFFFFFFFFFFFFFFFFFFFFFFFFFFFFFFFFF AND EQ PUSH2 0x69B JUMPI PUSH1 0x40 MLOAD PUSH32 0x8C379A000000000000000000000000000000000000000000000000000000000 DUP2 MSTORE PUSH1 0x4 ADD PUSH2 0x692 SWAP1 PUSH2 0xF2D JUMP JUMPDEST PUSH1 0x40 MLOAD DUP1 SWAP2 SUB SWAP1 REVERT JUMPDEST PUSH1 0x0 DUP1 PUSH1 0x0 PUSH1 0x1 SLOAD DUP2 MSTORE PUSH1 0x20 ADD SWAP1 DUP2 MSTORE PUSH1 0x20 ADD PUSH1 0x0 KECCAK256 SWAP1 POP DUP4 DUP2 PUSH1 0x0 ADD SWAP1 DUP1 MLOAD SWAP1 PUSH1 0x20 ADD SWAP1 PUSH2 0x6CB SWAP3 SWAP2 SWAP1 PUSH2 0x9C8 JUMP JUMPDEST POP DUP3 DUP2 PUSH1 0x1 ADD DUP2 SWAP1 SSTORE POP DUP2 DUP2 PUSH1 0x2 ADD PUSH1 0x1 PUSH2 0x100 EXP DUP2 SLOAD DUP2 PUSH20 0xFFFFFFFFFFFFFFFFFFFFFFFFFFFFFFFFFFFFFFFF MUL NOT AND SWAP1 DUP4 PUSH20 0xFFFFFFFFFFFFFFFFFFFFFFFFFFFFFFFFFFFFFFFF AND MUL OR SWAP1 SSTORE POP PUSH1 0x0 DUP2 PUSH1 0x2 ADD PUSH1 0x0 PUSH2 0x100 EXP DUP2 SLOAD DUP2 PUSH1 0xFF MUL NOT AND SWAP1 DUP4 ISZERO ISZERO MUL OR SWAP1 SSTORE POP PUSH1 0x0 DUP2 PUSH1 0x3 ADD DUP2 SWAP1 SSTORE POP PUSH1 0x1 PUSH1 0x0 DUP2 SLOAD DUP1 SWAP3 SWAP2 SWAP1 PUSH2 0x752 SWAP1 PUSH2 0x113B JUMP JUMPDEST SWAP2 SWAP1 POP SSTORE POP POP POP POP POP JUMP JUMPDEST PUSH1 0x3 SLOAD DUP2 JUMP JUMPDEST PUSH1 0x1 SLOAD DUP2 JUMP JUMPDEST PUSH1 0x3 SLOAD CALLVALUE GT PUSH2 0x7AD JUMPI PUSH1 0x40 MLOAD PUSH32 0x8C379A000000000000000000000000000000000000000000000000000000000 DUP2 MSTORE PUSH1 0x4 ADD PUSH2 0x7A4 SWAP1 PUSH2 0x11F6 JUMP JUMPDEST PUSH1 0x40 MLOAD DUP1 SWAP2 SUB SWAP1 REVERT JUMPDEST PUSH1 0x1 PUSH1 0x4 PUSH1 0x0 CALLER PUSH20 0xFFFFFFFFFFFFFFFFFFFFFFFFFFFFFFFFFFFFFFFF AND PUSH20 0xFFFFFFFFFFFFFFFFFFFFFFFFFFFFFFFFFFFFFFFF AND DUP2 MSTORE PUSH1 0x20 ADD SWAP1 DUP2 MSTORE PUSH1 0x20 ADD PUSH1 0x0 KECCAK256 PUSH1 0x0 PUSH2 0x100 EXP DUP2 SLOAD DUP2 PUSH1 0xFF MUL NOT AND SWAP1 DUP4 ISZERO ISZERO MUL OR SWAP1 SSTORE POP PUSH1 0x5 PUSH1 0x0 DUP2 SLOAD DUP1 SWAP3 SWAP2 SWAP1 PUSH2 0x818 SWAP1 PUSH2 0x113B JUMP JUMPDEST SWAP2 SWAP1 POP SSTORE POP JUMP JUMPDEST PUSH1 0x0 DUP1 PUSH1 0x0 DUP4 DUP2 MSTORE PUSH1 0x20 ADD SWAP1 DUP2 MSTORE PUSH1 0x20 ADD PUSH1 0x0 KECCAK256 SWAP1 POP PUSH1 0x4 PUSH1 0x0 CALLER PUSH20 0xFFFFFFFFFFFFFFFFFFFFFFFFFFFFFFFFFFFFFFFF AND PUSH20 0xFFFFFFFFFFFFFFFFFFFFFFFFFFFFFFFFFFFFFFFF AND DUP2 MSTORE PUSH1 0x20 ADD SWAP1 DUP2 MSTORE PUSH1 0x20 ADD PUSH1 0x0 KECCAK256 PUSH1 0x0 SWAP1 SLOAD SWAP1 PUSH2 0x100 EXP SWAP1 DIV PUSH1 0xFF AND PUSH2 0x8C1 JUMPI PUSH1 0x40 MLOAD PUSH32 0x8C379A000000000000000000000000000000000000000000000000000000000 DUP2 MSTORE PUSH1 0x4 ADD PUSH2 0x8B8 SWAP1 PUSH2 0x1262 JUMP JUMPDEST PUSH1 0x40 MLOAD DUP1 SWAP2 SUB SWAP1 REVERT JUMPDEST DUP1 PUSH1 0x4 ADD PUSH1 0x0 CALLER PUSH20 0xFFFFFFFFFFFFFFFFFFFFFFFFFFFFFFFFFFFFFFFF AND PUSH20 0xFFFFFFFFFFFFFFFFFFFFFFFFFFFFFFFFFFFFFFFF AND DUP2 MSTORE PUSH1 0x20 ADD SWAP1 DUP2 MSTORE PUSH1 0x20 ADD PUSH1 0x0 KECCAK256 PUSH1 0x0 SWAP1 SLOAD SWAP1 PUSH2 0x100 EXP SWAP1 DIV PUSH1 0xFF AND ISZERO PUSH2 0x950 JUMPI PUSH1 0x40 MLOAD PUSH32 0x8C379A000000000000000000000000000000000000000000000000000000000 DUP2 MSTORE PUSH1 0x4 ADD PUSH2 0x947 SWAP1 PUSH2 0x12CE JUMP JUMPDEST PUSH1 0x40 MLOAD DUP1 SWAP2 SUB SWAP1 REVERT JUMPDEST PUSH1 0x1 DUP2 PUSH1 0x4 ADD PUSH1 0x0 CALLER PUSH20 0xFFFFFFFFFFFFFFFFFFFFFFFFFFFFFFFFFFFFFFFF AND PUSH20 0xFFFFFFFFFFFFFFFFFFFFFFFFFFFFFFFFFFFFFFFF AND DUP2 MSTORE PUSH1 0x20 ADD SWAP1 DUP2 MSTORE PUSH1 0x20 ADD PUSH1 0x0 KECCAK256 PUSH1 0x0 PUSH2 0x100 EXP DUP2 SLOAD DUP2 PUSH1 0xFF MUL NOT AND SWAP1 DUP4 ISZERO ISZERO MUL OR SWAP1 SSTORE POP DUP1 PUSH1 0x3 ADD PUSH1 0x0 DUP2 SLOAD DUP1 SWAP3 SWAP2 SWAP1 PUSH2 0x9BF SWAP1 PUSH2 0x113B JUMP JUMPDEST SWAP2 SWAP1 POP SSTORE POP POP POP JUMP JUMPDEST DUP3 DUP1 SLOAD PUSH2 0x9D4 SWAP1 PUSH2 0x1109 JUMP JUMPDEST SWAP1 PUSH1 0x0 MSTORE PUSH1 0x20 PUSH1 0x0 KECCAK256 SWAP1 PUSH1 0x1F ADD PUSH1 0x20 SWAP1 DIV DUP2 ADD SWAP3 DUP3 PUSH2 0x9F6 JUMPI PUSH1 0x0 DUP6 SSTORE PUSH2 0xA3D JUMP JUMPDEST DUP3 PUSH1 0x1F LT PUSH2 0xA0F JUMPI DUP1 MLOAD PUSH1 0xFF NOT AND DUP4 DUP1 ADD OR DUP6 SSTORE PUSH2 0xA3D JUMP JUMPDEST DUP3 DUP1 ADD PUSH1 0x1 ADD DUP6 SSTORE DUP3 ISZERO PUSH2 0xA3D JUMPI SWAP2 DUP3 ADD JUMPDEST DUP3 DUP2 GT ISZERO PUSH2 0xA3C JUMPI DUP3 MLOAD DUP3 SSTORE SWAP2 PUSH1 0x20 ADD SWAP2 SWAP1 PUSH1 0x1 ADD SWAP1 PUSH2 0xA21 JUMP JUMPDEST JUMPDEST POP SWAP1 POP PUSH2 0xA4A SWAP2 SWAP1 PUSH2 0xA4E JUMP JUMPDEST POP SWAP1 JUMP JUMPDEST JUMPDEST DUP1 DUP3 GT ISZERO PUSH2 0xA67 JUMPI PUSH1 0x0 DUP2 PUSH1 0x0 SWAP1 SSTORE POP PUSH1 0x1 ADD PUSH2 0xA4F JUMP JUMPDEST POP SWAP1 JUMP JUMPDEST PUSH1 0x0 PUSH1 0x40 MLOAD SWAP1 POP SWAP1 JUMP JUMPDEST PUSH1 0x0 DUP1 REVERT JUMPDEST PUSH1 0x0 DUP1 REVERT JUMPDEST PUSH1 0x0 DUP2 SWAP1 POP SWAP2 SWAP1 POP JUMP JUMPDEST PUSH2 0xA92 DUP2 PUSH2 0xA7F JUMP JUMPDEST DUP2 EQ PUSH2 0xA9D JUMPI PUSH1 0x0 DUP1 REVERT JUMPDEST POP JUMP JUMPDEST PUSH1 0x0 DUP2 CALLDATALOAD SWAP1 POP PUSH2 0xAAF DUP2 PUSH2 0xA89 JUMP JUMPDEST SWAP3 SWAP2 POP POP JUMP JUMPDEST PUSH1 0x0 PUSH1 0x20 DUP3 DUP5 SUB SLT ISZERO PUSH2 0xACB JUMPI PUSH2 0xACA PUSH2 0xA75 JUMP JUMPDEST JUMPDEST PUSH1 0x0 PUSH2 0xAD9 DUP5 DUP3 DUP6 ADD PUSH2 0xAA0 JUMP JUMPDEST SWAP2 POP POP SWAP3 SWAP2 POP POP JUMP JUMPDEST PUSH1 0x0 PUSH20 0xFFFFFFFFFFFFFFFFFFFFFFFFFFFFFFFFFFFFFFFF DUP3 AND SWAP1 POP SWAP2 SWAP1 POP JUMP JUMPDEST PUSH1 0x0 PUSH2 0xB0D DUP3 PUSH2 0xAE2 JUMP JUMPDEST SWAP1 POP SWAP2 SWAP1 POP JUMP JUMPDEST PUSH2 0xB1D DUP2 PUSH2 0xB02 JUMP JUMPDEST DUP2 EQ PUSH2 0xB28 JUMPI PUSH1 0x0 DUP1 REVERT JUMPDEST POP JUMP JUMPDEST PUSH1 0x0 DUP2 CALLDATALOAD SWAP1 POP PUSH2 0xB3A DUP2 PUSH2 0xB14 JUMP JUMPDEST SWAP3 SWAP2 POP POP JUMP JUMPDEST PUSH1 0x0 PUSH1 0x20 DUP3 DUP5 SUB SLT ISZERO PUSH2 0xB56 JUMPI PUSH2 0xB55 PUSH2 0xA75 JUMP JUMPDEST JUMPDEST PUSH1 0x0 PUSH2 0xB64 DUP5 DUP3 DUP6 ADD PUSH2 0xB2B JUMP JUMPDEST SWAP2 POP POP SWAP3 SWAP2 POP POP JUMP JUMPDEST PUSH1 0x0 DUP2 ISZERO ISZERO SWAP1 POP SWAP2 SWAP1 POP JUMP JUMPDEST PUSH2 0xB82 DUP2 PUSH2 0xB6D JUMP JUMPDEST DUP3 MSTORE POP POP JUMP JUMPDEST PUSH1 0x0 PUSH1 0x20 DUP3 ADD SWAP1 POP PUSH2 0xB9D PUSH1 0x0 DUP4 ADD DUP5 PUSH2 0xB79 JUMP JUMPDEST SWAP3 SWAP2 POP POP JUMP JUMPDEST PUSH2 0xBAC DUP2 PUSH2 0xA7F JUMP JUMPDEST DUP3 MSTORE POP POP JUMP JUMPDEST PUSH1 0x0 PUSH1 0x20 DUP3 ADD SWAP1 POP PUSH2 0xBC7 PUSH1 0x0 DUP4 ADD DUP5 PUSH2 0xBA3 JUMP JUMPDEST SWAP3 SWAP2 POP POP JUMP JUMPDEST PUSH2 0xBD6 DUP2 PUSH2 0xB02 JUMP JUMPDEST DUP3 MSTORE POP POP JUMP JUMPDEST PUSH1 0x0 PUSH1 0xA0 DUP3 ADD SWAP1 POP PUSH2 0xBF1 PUSH1 0x0 DUP4 ADD DUP9 PUSH2 0xBA3 JUMP JUMPDEST PUSH2 0xBFE PUSH1 0x20 DUP4 ADD DUP8 PUSH2 0xBA3 JUMP JUMPDEST PUSH2 0xC0B PUSH1 0x40 DUP4 ADD DUP7 PUSH2 0xBA3 JUMP JUMPDEST PUSH2 0xC18 PUSH1 0x60 DUP4 ADD DUP6 PUSH2 0xBA3 JUMP JUMPDEST PUSH2 0xC25 PUSH1 0x80 DUP4 ADD DUP5 PUSH2 0xBCD JUMP JUMPDEST SWAP7 SWAP6 POP POP POP POP POP POP JUMP JUMPDEST PUSH1 0x0 PUSH1 0x20 DUP3 ADD SWAP1 POP PUSH2 0xC44 PUSH1 0x0 DUP4 ADD DUP5 PUSH2 0xBCD JUMP JUMPDEST SWAP3 SWAP2 POP POP JUMP JUMPDEST PUSH1 0x0 DUP2 MLOAD SWAP1 POP SWAP2 SWAP1 POP JUMP JUMPDEST PUSH1 0x0 DUP3 DUP3 MSTORE PUSH1 0x20 DUP3 ADD SWAP1 POP SWAP3 SWAP2 POP POP JUMP JUMPDEST PUSH1 0x0 JUMPDEST DUP4 DUP2 LT ISZERO PUSH2 0xC84 JUMPI DUP1 DUP3 ADD MLOAD DUP2 DUP5 ADD MSTORE PUSH1 0x20 DUP2 ADD SWAP1 POP PUSH2 0xC69 JUMP JUMPDEST DUP4 DUP2 GT ISZERO PUSH2 0xC93 JUMPI PUSH1 0x0 DUP5 DUP5 ADD MSTORE JUMPDEST POP POP POP POP JUMP JUMPDEST PUSH1 0x0 PUSH1 0x1F NOT PUSH1 0x1F DUP4 ADD AND SWAP1 POP SWAP2 SWAP1 POP JUMP JUMPDEST PUSH1 0x0 PUSH2 0xCB5 DUP3 PUSH2 0xC4A JUMP JUMPDEST PUSH2 0xCBF DUP2 DUP6 PUSH2 0xC55 JUMP JUMPDEST SWAP4 POP PUSH2 0xCCF DUP2 DUP6 PUSH1 0x20 DUP7 ADD PUSH2 0xC66 JUMP JUMPDEST PUSH2 0xCD8 DUP2 PUSH2 0xC99 JUMP JUMPDEST DUP5 ADD SWAP2 POP POP SWAP3 SWAP2 POP POP JUMP JUMPDEST PUSH1 0x0 PUSH1 0xA0 DUP3 ADD SWAP1 POP DUP2 DUP2 SUB PUSH1 0x0 DUP4 ADD MSTORE PUSH2 0xCFD DUP2 DUP9 PUSH2 0xCAA JUMP JUMPDEST SWAP1 POP PUSH2 0xD0C PUSH1 0x20 DUP4 ADD DUP8 PUSH2 0xBA3 JUMP JUMPDEST PUSH2 0xD19 PUSH1 0x40 DUP4 ADD DUP7 PUSH2 0xB79 JUMP JUMPDEST PUSH2 0xD26 PUSH1 0x60 DUP4 ADD DUP6 PUSH2 0xBCD JUMP JUMPDEST PUSH2 0xD33 PUSH1 0x80 DUP4 ADD DUP5 PUSH2 0xBA3 JUMP JUMPDEST SWAP7 SWAP6 POP POP POP POP POP POP JUMP JUMPDEST PUSH1 0x0 DUP1 REVERT JUMPDEST PUSH1 0x0 DUP1 REVERT JUMPDEST PUSH32 0x4E487B7100000000000000000000000000000000000000000000000000000000 PUSH1 0x0 MSTORE PUSH1 0x41 PUSH1 0x4 MSTORE PUSH1 0x24 PUSH1 0x0 REVERT JUMPDEST PUSH2 0xD7F DUP3 PUSH2 0xC99 JUMP JUMPDEST DUP2 ADD DUP2 DUP2 LT PUSH8 0xFFFFFFFFFFFFFFFF DUP3 GT OR ISZERO PUSH2 0xD9E JUMPI PUSH2 0xD9D PUSH2 0xD47 JUMP JUMPDEST JUMPDEST DUP1 PUSH1 0x40 MSTORE POP POP POP JUMP JUMPDEST PUSH1 0x0 PUSH2 0xDB1 PUSH2 0xA6B JUMP JUMPDEST SWAP1 POP PUSH2 0xDBD DUP3 DUP3 PUSH2 0xD76 JUMP JUMPDEST SWAP2 SWAP1 POP JUMP JUMPDEST PUSH1 0x0 PUSH8 0xFFFFFFFFFFFFFFFF DUP3 GT ISZERO PUSH2 0xDDD JUMPI PUSH2 0xDDC PUSH2 0xD47 JUMP JUMPDEST JUMPDEST PUSH2 0xDE6 DUP3 PUSH2 0xC99 JUMP JUMPDEST SWAP1 POP PUSH1 0x20 DUP2 ADD SWAP1 POP SWAP2 SWAP1 POP JUMP JUMPDEST DUP3 DUP2 DUP4 CALLDATACOPY PUSH1 0x0 DUP4 DUP4 ADD MSTORE POP POP POP JUMP JUMPDEST PUSH1 0x0 PUSH2 0xE15 PUSH2 0xE10 DUP5 PUSH2 0xDC2 JUMP JUMPDEST PUSH2 0xDA7 JUMP JUMPDEST SWAP1 POP DUP3 DUP2 MSTORE PUSH1 0x20 DUP2 ADD DUP5 DUP5 DUP5 ADD GT ISZERO PUSH2 0xE31 JUMPI PUSH2 0xE30 PUSH2 0xD42 JUMP JUMPDEST JUMPDEST PUSH2 0xE3C DUP5 DUP3 DUP6 PUSH2 0xDF3 JUMP JUMPDEST POP SWAP4 SWAP3 POP POP POP JUMP JUMPDEST PUSH1 0x0 DUP3 PUSH1 0x1F DUP4 ADD SLT PUSH2 0xE59 JUMPI PUSH2 0xE58 PUSH2 0xD3D JUMP JUMPDEST JUMPDEST DUP2 CALLDATALOAD PUSH2 0xE69 DUP5 DUP3 PUSH1 0x20 DUP7 ADD PUSH2 0xE02 JUMP JUMPDEST SWAP2 POP POP SWAP3 SWAP2 POP POP JUMP JUMPDEST PUSH1 0x0 DUP1 PUSH1 0x0 PUSH1 0x60 DUP5 DUP7 SUB SLT ISZERO PUSH2 0xE8B JUMPI PUSH2 0xE8A PUSH2 0xA75 JUMP JUMPDEST JUMPDEST PUSH1 0x0 DUP5 ADD CALLDATALOAD PUSH8 0xFFFFFFFFFFFFFFFF DUP2 GT ISZERO PUSH2 0xEA9 JUMPI PUSH2 0xEA8 PUSH2 0xA7A JUMP JUMPDEST JUMPDEST PUSH2 0xEB5 DUP7 DUP3 DUP8 ADD PUSH2 0xE44 JUMP JUMPDEST SWAP4 POP POP PUSH1 0x20 PUSH2 0xEC6 DUP7 DUP3 DUP8 ADD PUSH2 0xAA0 JUMP JUMPDEST SWAP3 POP POP PUSH1 0x40 PUSH2 0xED7 DUP7 DUP3 DUP8 ADD PUSH2 0xB2B JUMP JUMPDEST SWAP2 POP POP SWAP3 POP SWAP3 POP SWAP3 JUMP JUMPDEST PUSH32 0x596F75206E65656420746F2062652061646D696E000000000000000000000000 PUSH1 0x0 DUP3 ADD MSTORE POP JUMP JUMPDEST PUSH1 0x0 PUSH2 0xF17 PUSH1 0x14 DUP4 PUSH2 0xC55 JUMP JUMPDEST SWAP2 POP PUSH2 0xF22 DUP3 PUSH2 0xEE1 JUMP JUMPDEST PUSH1 0x20 DUP3 ADD SWAP1 POP SWAP2 SWAP1 POP JUMP JUMPDEST PUSH1 0x0 PUSH1 0x20 DUP3 ADD SWAP1 POP DUP2 DUP2 SUB PUSH1 0x0 DUP4 ADD MSTORE PUSH2 0xF46 DUP2 PUSH2 0xF0A JUMP JUMPDEST SWAP1 POP SWAP2 SWAP1 POP JUMP JUMPDEST PUSH32 0x4E487B7100000000000000000000000000000000000000000000000000000000 PUSH1 0x0 MSTORE PUSH1 0x12 PUSH1 0x4 MSTORE PUSH1 0x24 PUSH1 0x0 REVERT JUMPDEST PUSH32 0x4E487B7100000000000000000000000000000000000000000000000000000000 PUSH1 0x0 MSTORE PUSH1 0x11 PUSH1 0x4 MSTORE PUSH1 0x24 PUSH1 0x0 REVERT JUMPDEST PUSH1 0x0 PUSH2 0xFB6 DUP3 PUSH2 0xA7F JUMP JUMPDEST SWAP2 POP PUSH2 0xFC1 DUP4 PUSH2 0xA7F JUMP JUMPDEST SWAP3 POP DUP3 PUSH2 0xFD1 JUMPI PUSH2 0xFD0 PUSH2 0xF4D JUMP JUMPDEST JUMPDEST DUP3 DUP3 DIV SWAP1 POP SWAP3 SWAP2 POP POP JUMP JUMPDEST PUSH32 0x596F752063616E27742066696E616C697A652074686520726571756573742079 PUSH1 0x0 DUP3 ADD MSTORE PUSH32 0x6574000000000000000000000000000000000000000000000000000000000000 PUSH1 0x20 DUP3 ADD MSTORE POP JUMP JUMPDEST PUSH1 0x0 PUSH2 0x1038 PUSH1 0x22 DUP4 PUSH2 0xC55 JUMP JUMPDEST SWAP2 POP PUSH2 0x1043 DUP3 PUSH2 0xFDC JUMP JUMPDEST PUSH1 0x40 DUP3 ADD SWAP1 POP SWAP2 SWAP1 POP JUMP JUMPDEST PUSH1 0x0 PUSH1 0x20 DUP3 ADD SWAP1 POP DUP2 DUP2 SUB PUSH1 0x0 DUP4 ADD MSTORE PUSH2 0x1067 DUP2 PUSH2 0x102B JUMP JUMPDEST SWAP1 POP SWAP2 SWAP1 POP JUMP JUMPDEST PUSH32 0x5265717565737420697320616C726561647920636F6D706C6574656400000000 PUSH1 0x0 DUP3 ADD MSTORE POP JUMP JUMPDEST PUSH1 0x0 PUSH2 0x10A4 PUSH1 0x1C DUP4 PUSH2 0xC55 JUMP JUMPDEST SWAP2 POP PUSH2 0x10AF DUP3 PUSH2 0x106E JUMP JUMPDEST PUSH1 0x20 DUP3 ADD SWAP1 POP SWAP2 SWAP1 POP JUMP JUMPDEST PUSH1 0x0 PUSH1 0x20 DUP3 ADD SWAP1 POP DUP2 DUP2 SUB PUSH1 0x0 DUP4 ADD MSTORE PUSH2 0x10D3 DUP2 PUSH2 0x1097 JUMP JUMPDEST SWAP1 POP SWAP2 SWAP1 POP JUMP JUMPDEST PUSH32 0x4E487B7100000000000000000000000000000000000000000000000000000000 PUSH1 0x0 MSTORE PUSH1 0x22 PUSH1 0x4 MSTORE PUSH1 0x24 PUSH1 0x0 REVERT JUMPDEST PUSH1 0x0 PUSH1 0x2 DUP3 DIV SWAP1 POP PUSH1 0x1 DUP3 AND DUP1 PUSH2 0x1121 JUMPI PUSH1 0x7F DUP3 AND SWAP2 POP JUMPDEST PUSH1 0x20 DUP3 LT DUP2 EQ ISZERO PUSH2 0x1135 JUMPI PUSH2 0x1134 PUSH2 0x10DA JUMP JUMPDEST JUMPDEST POP SWAP2 SWAP1 POP JUMP JUMPDEST PUSH1 0x0 PUSH2 0x1146 DUP3 PUSH2 0xA7F JUMP JUMPDEST SWAP2 POP PUSH32 0xFFFFFFFFFFFFFFFFFFFFFFFFFFFFFFFFFFFFFFFFFFFFFFFFFFFFFFFFFFFFFFFF DUP3 EQ ISZERO PUSH2 0x1179 JUMPI PUSH2 0x1178 PUSH2 0xF7C JUMP JUMPDEST JUMPDEST PUSH1 0x1 DUP3 ADD SWAP1 POP SWAP2 SWAP1 POP JUMP JUMPDEST PUSH32 0x43616E2774206265206C657373207468616E206D696E696D756D20636F6E7472 PUSH1 0x0 DUP3 ADD MSTORE PUSH32 0x69627574696F6E00000000000000000000000000000000000000000000000000 PUSH1 0x20 DUP3 ADD MSTORE POP JUMP JUMPDEST PUSH1 0x0 PUSH2 0x11E0 PUSH1 0x27 DUP4 PUSH2 0xC55 JUMP JUMPDEST SWAP2 POP PUSH2 0x11EB DUP3 PUSH2 0x1184 JUMP JUMPDEST PUSH1 0x40 DUP3 ADD SWAP1 POP SWAP2 SWAP1 POP JUMP JUMPDEST PUSH1 0x0 PUSH1 0x20 DUP3 ADD SWAP1 POP DUP2 DUP2 SUB PUSH1 0x0 DUP4 ADD MSTORE PUSH2 0x120F DUP2 PUSH2 0x11D3 JUMP JUMPDEST SWAP1 POP SWAP2 SWAP1 POP JUMP JUMPDEST PUSH32 0x596F75206E65656420746F206265206F6E6520617070726F7665720000000000 PUSH1 0x0 DUP3 ADD MSTORE POP JUMP JUMPDEST PUSH1 0x0 PUSH2 0x124C PUSH1 0x1B DUP4 PUSH2 0xC55 JUMP JUMPDEST SWAP2 POP PUSH2 0x1257 DUP3 PUSH2 0x1216 JUMP JUMPDEST PUSH1 0x20 DUP3 ADD SWAP1 POP SWAP2 SWAP1 POP JUMP JUMPDEST PUSH1 0x0 PUSH1 0x20 DUP3 ADD SWAP1 POP DUP2 DUP2 SUB PUSH1 0x0 DUP4 ADD MSTORE PUSH2 0x127B DUP2 PUSH2 0x123F JUMP JUMPDEST SWAP1 POP SWAP2 SWAP1 POP JUMP JUMPDEST PUSH32 0x596F752063616E277420617070726F766520616761696E000000000000000000 PUSH1 0x0 DUP3 ADD MSTORE POP JUMP JUMPDEST PUSH1 0x0 PUSH2 0x12B8 PUSH1 0x17 DUP4 PUSH2 0xC55 JUMP JUMPDEST SWAP2 POP PUSH2 0x12C3 DUP3 PUSH2 0x1282 JUMP JUMPDEST PUSH1 0x20 DUP3 ADD SWAP1 POP SWAP2 SWAP1 POP JUMP JUMPDEST PUSH1 0x0 PUSH1 0x20 DUP3 ADD SWAP1 POP DUP2 DUP2 SUB PUSH1 0x0 DUP4 ADD MSTORE PUSH2 0x12E7 DUP2 PUSH2 0x12AB JUMP JUMPDEST SWAP1 POP SWAP2 SWAP1 POP JUMP INVALID LOG2 PUSH5 0x6970667358 0x22 SLT KECCAK256 DUP2 SWAP14 PUSH11 0x72C54FF5537886FCC3053B NOT DUP11 PUSH9 0xB7F63D34E6F5C732E4 0xDD DUP15 POP DUP11 PUSH1 0x29 PUSH5 0x736F6C6343 STOP ADDMOD SIGNEXTEND STOP CALLER "},"gasEstimates":{"creation":{"codeDepositCost":"980000","executionCost":"infinite","totalCost":"infinite"},"external":{"approveRequest(uint256)":"infinite","approvers(address)":"2868","approversCount()":"2429","contribute()":"51046","createRequest(string,uint256,address)":"infinite","finalizeRequest(uint256)":"infinite","getRequestsCount()":"2482","getSummary()":"infinite","manager()":"2603","minimumContribution()":"2473","numRequests()":"2495","requests(uint256)":"infinite"}},"methodIdentifiers":{"approveRequest(uint256)":"d7d1bbdb","approvers(address)":"0a144391","approversCount()":"82fde093","contribute()":"d7bb99ba","createRequest(string,uint256,address)":"8a9cfd55","finalizeRequest(uint256)":"03441006","getRequestsCount()":"3410452a","getSummary()":"4051ddac","manager()":"481c6a75","minimumContribution()":"937e09b1","numRequests()":"9fb42b1f","requests(uint256)":"81d12c58"}},"storageLayout":{"storage":[{"astId":59,"contract":"Campaign.sol:Campaign","label":"requests","offset":0,"slot":"0","type":"t_mapping(t_uint256,t_struct(Request)54_storage)"},{"astId":61,"contract":"Campaign.sol:Campaign","label":"numRequests","offset":0,"slot":"1","type":"t_uint256"},{"astId":63,"contract":"Campaign.sol:Campaign","label":"manager","offset":0,"slot":"2","type":"t_address"},{"astId":65,"contract":"Campaign.sol:Campaign","label":"minimumContribution","offset":0,"slot":"3","type":"t_uint256"},{"astId":69,"contract":"Campaign.sol:Campaign","label":"approvers","offset":0,"slot":"4","type":"t_mapping(t_address,t_bool)"},{"astId":71,"contract":"Campaign.sol:Campaign","label":"approversCount","offset":0,"slot":"5","type":"t_uint256"}],"types":{"t_address":{"encoding":"inplace","label":"address","numberOfBytes":"20"},"t_bool":{"encoding":"inplace","label":"bool","numberOfBytes":"1"},"t_mapping(t_address,t_bool)":{"encoding":"mapping","key":"t_address","label":"mapping(address => bool)","numberOfBytes":"32","value":"t_bool"},"t_mapping(t_uint256,t_struct(Request)54_storage)":{"encoding":"mapping","key":"t_uint256","label":"mapping(uint256 => struct Campaign.Request)","numberOfBytes":"32","value":"t_struct(Request)54_storage"},"t_string_storage":{"encoding":"bytes","label":"string","numberOfBytes":"32"},"t_struct(Request)54_storage":{"encoding":"inplace","label":"struct Campaign.Request","members":[{"astId":41,"contract":"Campaign.sol:Campaign","label":"description","offset":0,"slot":"0","type":"t_string_storage"},{"astId":43,"contract":"Campaign.sol:Campaign","label":"value","offset":0,"slot":"1","type":"t_uint256"},{"astId":45,"contract":"Campaign.sol:Campaign","label":"complete","offset":0,"slot":"2","type":"t_bool"},{"astId":47,"contract":"Campaign.sol:Campaign","label":"recipient","offset":1,"slot":"2","type":"t_address"},{"astId":49,"contract":"Campaign.sol:Campaign","label":"approvalCount","offset":0,"slot":"3","type":"t_uint256"},{"astId":53,"contract":"Campaign.sol:Campaign","label":"approvals","offset":0,"slot":"4","type":"t_mapping(t_address,t_bool)"}],"numberOfBytes":"160"},"t_uint256":{"encoding":"inplace","label":"uint256","numberOfBytes":"32"}}},"userdoc":{"kind":"user","methods":{},"version":1}}